:020000040001F9
:108000001031002089810100A3810100A5810100B8
:108010000000000000000000000000000000000060
:10802000000000000000000000000000A781010027
:108030000000000000000000A9810100AB810100E8
:10804000AD810100AD810100A18D0100AD81010074
:10805000AD81010000000000F1870100AD81010049
:10806000AD810100AD810100698D0100AD8101008C
:10807000AD810100AD810100AD810100AD81010044
:10808000AD810100C98C0100AD810100AD8101000D
:10809000F18C0100AD810100F98C0100AD8101007E
:1080A000AD810100AD810100000000000000000072
:1080B00000000000000000000000000000000000C0
:1080C0000348854600F054FB004800478DDE010060
:1080D00010310020401E00BF00BF00BF00BF00BF26
:1080E00000BF00BF00BF00BF00BF00BF00BFF1D195
:1080F00070470000401E00BF00BF00BF00BF00BFB0
:1081000000BF00BF00BF00BF00BF00BF00BFF1D174
:1081100070470000401E00BF00BF00BF00BF00BF8F
:1081200000BF00BF00BF00BF00BF00BF00BFF1D154
:1081300070470000056885F308884068FF2464B232
:10814000EFF30585002D01D1A646004725460646DA
:1081500021273FBAF0B40024002500260027F0B400
:10816000F92040B200470000401E00BF00BF00BF22
:1081700000BF00BF00BF00BF00BF00BF00BF00BF07
:1081800000BFF1D1704700000321094802680A438B
:108190000260084802680A430260074880470748AF
:1081A0000047FEE7FEE7FEE7FEE7FEE7FEE700002A
:1081B0002405004054050040318D0100C1800100BC
:1081C00030B50B46014600202022012409E00D466F
:1081D000D5409D4205D31D469540491B25469540F7
:1081E00040191546521E002DF1DC30BD70B500243B
:1081F0002546002801DA01244042002901DA012540
:108200004942FFF7DDFFAC4200D04042002C00D0D5
:10821000494270BD03460B439B0703D009E008C9E0
:10822000121F08C0042AFAD203E00B78491C03701D
:10823000401C521EF9D27047D2B201E00270401CBD
:10824000491EFBD270470022F6E710B513460A46D6
:1082500004461946FFF7F0FF204610BD421C017886
:10826000401C0029FBD1801A704730B5044600201D
:10827000034600E05B1C934203D2E05CCD5C401BF4
:10828000F8D030BD024670B54A40D30FDB0740003E
:108290002DD04A002AD0010E140E09190002120234
:1082A000400A520A8418E50104465443000A120A9F
:1082B0002E045043A4194219200CC543AA18120CCD
:1082C00001257F39521CAD0352191204240400D039
:1082D000521C104301D44000491EC2B20C06C00912
:1082E0002018401C4008802A02D003E0002070BD06
:1082F00040084000002900DA0020184370BD70B526
:1083000002464A40D50F40004A00ED074008520897
:10831000002814D0002A12D0C40DD30D4102012030
:10832000C0055202490A520AE41A091812187D348B
:10833000914201D3641C00E04900002C01DA0020C6
:1083400070BD0023914201D3891A034340084900BC
:108350000028F7D100290AD0914202D10121C90792
:1083600005E0914201D2012101E00121C943E0056C
:10837000C018401900F05AF970BD0000F0B51FB4E4
:1083800088B00B990998002448400999C00F49000A
:1083900049080991C0070B990090490049080B91C1
:1083A00009990898A646084303D00B990A980843F0
:1083B00003D1002001460DB0F0BD09980124400012
:1083C000420D4800410D099824050003000B20438D
:1083D00009900B980003000B20430B9050181A498A
:1083E0004018002201901446104601E0032801DAEB
:1083F000034600E003239C46C11A0AAE0AE05F0070
:1084000008ADED5B4F00F75B7D430027AA187C4168
:108410005B1E491C6145F2DD410004AB5A52210448
:10842000120C0A43240C401C0828DFDB0198029040
:108430000099704601910090059B049A079906984F
:1084400000F043F9B7E700000DFCFFFFF0B50C4664
:108450005C4085B0E40FE40703944C0000266408F8
:1084600059009446490802460296224321D06246AA
:108470000A431ED06200570D4A000E032303550D18
:10848000012402462C492405781B1B0B360B40188F
:1084900023432643614600901C46501AB44103D33F
:1084A0000098401C009002E0921800985B41002860
:1084B00003DA0020014605B0F0BD002001210905C6
:1084C0000746864611E064461D46141BB54106D397
:1084D0006546521BB341744607430C43A646CD077D
:1084E00040084908284392185B4105460D43EAD1EC
:1084F0001046184313D06046194650407140084357
:1085000003D100220123DB0709E06046101AB341C2
:1085100002D20122002302E00122D243531000982C
:1085200074460105381C6141029C039D0019694194
:1085300000F0BEF8BFE70000FD0300000EB5C21753
:10854000C10F5040CA0740180021054B0293019209
:1085500000910A460B4600F0B8F803B000BD0000D9
:1085600033040000C20F410040020123400ADB0532
:10857000D207090EC0187F2901DA0020704796291A
:1085800003DC9623591AC84001E096398840002A36
:10859000F4D040427047410040020122400AD20517
:1085A000090E80187F2901DA00207047962903DC24
:1085B0009622511AC8407047963988407047CB0FB1
:1085C000DB07490010B5490802460A4307D00A0DE7
:1085D00007240903E401090B121B002A01DC002017
:1085E00010BDC900440F0C43C100E018D20580182B
:1085F00000F01CF810BD00000122D207002800DBAB
:10860000101A002900DB511A8142704710B5202A48
:1086100004DB0146203A9140002010BD9140202308
:108620009C1A0346E3401943904010BD002904DA28
:10863000401C490001D140084000704770B400243C
:10864000050C05D11024000402D1002922D01124E8
:10865000050E01D108340002050F01D1241D0001CF
:10866000850F01D1A41C8000002801DB641C4000A0
:10867000002908D020252E1B0D46F540A14000D032
:108680000121294308431B1B0106DB1D000A002BA7
:1086900002DA002070BC7047DB051818801800292A
:1086A000F8DA401C4900F5D170BC40084000704722
:1086B00010B5002B08DA0024401C614192185B4180
:1086C0001A4301D14008400010BDF0B51FB482B07C
:1086D00005460C0003D0084600F008FC02E000F05C
:1086E00005FC20300246009021462846FFF78EFF09
:1086F000049B059A04460F4618431143084303D1CF
:108700002046394607B0F0BD1846104317D00098F0
:1087100040210A1A1846059900F03CF805460E4615
:10872000009A05990498FFF771FF084301D00120D2
:1087300000E00020C11705430E432C433743009946
:108740000E986305401A7905E40A0A3000220C43AA
:10875000FD0A002802DA00200146D3E701051019BE
:1087600069410C9C0D9D00196941FFF7A1FFC9E704
:10877000064C0125064E05E02046E36807C82B435A
:1087800098471034B442F7D3FFF79EFC200B020049
:10879000400B020010B5202A04DB0846203AD040E6
:1087A000002110BD0B46D340D0402024A21A914096
:1087B0000843194610BD30B58C180278401C1307C9
:1087C0001B0F01D10378401C120906D10278401C0E
:1087D00003E00578401C0D70491C5B1EF9D101E0D7
:1087E0000B70491C521EFBD1A142E6D3002030BDC4
:1087F000F0B587B0002600200690FF2001300590DC
:108800000125002416E0059805F042FF00280BD052
:1088100000BF534840682840002805D0059805F05F
:108820002FFF3046284306466D000598001D80B294
:108830000590641C042CE6D3FF207D3005F028FF52
:1088400000280AD0FF207D3005F01AFF0120C00764
:10885000064300BF4348006906903007000F29D047
:108860000125002424E0284630421FD000BF3E48A6
:10887000512109014018A10040581F210902084058
:10888000000A049000BF3848512109014018A10096
:108890004058032109040840000C0390204602F0D0
:1088A00079FD074603990498B84700BF6D00641C22
:1088B000042CD8D3F00FC0074FD000244BE02B4836
:1088C0000057401C46D02948005D0490C021049800
:1088D00088430746384602F0A1FD029002F05AFD97
:1088E00003900398002834D0C021049808408011D8
:1088F00002900120B840054600BF0520000707216F
:1089000009024018B9004058032109040840000C2E
:1089100001900698054202D00198022805D00698D9
:10892000054215D10198032812D1029803280BD1D2
:108930000198022801D1032000E00220009038466F
:10894000009905F05AFE00BF3846039A02999047F5
:1089500000BF00BF641C042CB1D307B0F0BD000001
:10896000006300400005005000600040B827002070
:1089700010B500F01CF8FE2000F053F800F037F8B6
:108980000F2005F05DFC10BD10B50446002C06D08C
:10899000002005F026FE012005F023FE06E0002061
:1089A00005F01FFE0321012005F00EFE10BD10B5DD
:1089B0000120FFF7E9FF002005F042FE012005F04D
:1089C00051FE0120FFF786FB002005F04BFE05203D
:1089D000FFF780FB012005F033FE0420FFF77AFB50
:1089E000002005F02DFE0220FFF774FB10BD10B52E
:1089F0000120FFF7C9FF002005F022FE012005F04D
:108A00001FFE0120FFF766FB002005F02BFE05206E
:108A1000FFF760FB012005F025FE0420FFF75AFB5D
:108A200010BD70B505460120FFF7AEFF07241DE01D
:108A3000002005F005FE28462041C007C00F002891
:108A400003DD012005F00EFE02E0012005F0F8FD37
:108A50000220FFF73FFB002005F004FE0520FFF792
:108A600039FB002005F0ECFD601E44B2002CDFDA7B
:108A70000220FFF72FFB70BD13200123834019460E
:108A8000064B5B68C340DA07D20F002A02D1034BC2
:108A9000996001E0014BD96000BF704700050050AC
:108AA00010B5162005F09DFD182005F09AFD10BDAB
:108AB00010B50446204605F0D5FD10BD10B504469E
:108AC000204605F0BDFD10BD7CB504460D4616469A
:108AD000062269463B2005F0E7FA6946087800025D
:108AE0004978084300B220800020205E0121C9039C
:108AF000084204D020884900401A00B2208069460C
:108B000088780002C978084300B228800020285ED7
:108B10000121C903084204D028884900401A00B244
:108B200028806946087900024979084300B23080FC
:108B30000020305E0121C903084204D0308849007A
:108B4000401A00B230807CBDC206D20E0121914095
:108B5000014A11607047000080E200E0C206D20EB8
:108B600001219140014A11607047000000E100E0DE
:108B7000C206D20E01219140014A116070470000E7
:108B800000E200E010B5002819DA1A4A03071B0FAB
:108B9000083B9B089B00D2588307DC0EFF23A340B1
:108BA0009A438B071B0E8407E40EA3401A43114B14
:108BB0000407240F083CA408A4001A5118E00E4A28
:108BC00003231B02D21883089B00D2588307DC0EB4
:108BD000FF23A3409A438B071B0E8407E40EA34098
:108BE0001A43054B032424021B198408A4001A51BC
:108BF00010BD00001CED00E000E100E010B5002811
:108C000019DA1A4A03071B0F083B9B089B00D2582E
:108C10008307DC0EFF23A3409A438B071B0E8407B8
:108C2000E40EA3401A43114B0407240F083CA40888
:108C3000A4001A5118E00E4A03231B02D21883081D
:108C40009B00D2588307DC0EFF23A3409A438B0777
:108C50001B0E8407E40EA3401A43054B0324240291
:108C60001B198408A4001A5110BD00001CED00E07F
:108C700000E100E010B5002417E0082005F0E8FC52
:108C800000280DD1FF20F53005F0DAFA1820FFF7A3
:108C900015FF642005F0D4FA1820FFF709FF02E061
:108CA000072005F0CDFC601CC4B2032CE5DB0720D7
:108CB00005F0D8FC10BD10B50321082005F084FC98
:108CC000072005F08EFC10BD10B500200749086094
:108CD0000021064841608160C1600020034940399D
:108CE0000860486007F0CAFA10BD0000401101405A
:108CF00010B507F0D7F910BD70B50C480068002812
:108D000010D00A4800688047044600BF2546002D61
:108D100006D000BF00221146284600F067FB00BFC6
:108D200000BF01E004F044FE70BD00008C21002073
:108D300010B504F005FF002805D007480749486032
:108D4000C8130749886104F0E1FE002802D0012021
:108D50000449886010BD0000DFFF07C00005004027
:108D6000006C00400006004010B50A4880680128E9
:108D70000FD10948406801218904084209D0002127
:108D800004488160FFF778FE07F0E4F8012003490A
:108D9000C86010BD40A1004000A3004000A00040FA
:108DA0001FB5012149024A4805F09EFC00282FD03A
:108DB000FF212531464805F087FC002828D0FF21F7
:108DC0002531434805F088FC81218900404805F0A1
:108DD00086FC4048407D002803D104213C4805F032
:108DE0008EFC022069460870394805F063FC039048
:108DF0003848C17C684601723648C068019000203E
:108E00003449C8740846016842686846904725E0BE
:108E100004212F4805F068FC00281FD0FF210931EC
:108E20002B4805F051FC002818D006F055FB2948C6
:108E3000C07C2849097D884210D12648407D002801
:108E400003D10421224805F05AFC812189002048E1
:108E500005F045FC1F49087D06F05AFBFF211D3136
:108E60001B4805F031FC002815D01A48807C1949B0
:108E7000098A884202DD07F069FC0CE0FF211D3100
:108E8000134805F029FC1348807C002803D01149C1
:108E9000887C07F077FCFF2145310D4805F014FC74
:108EA000002814D0FF214531094805F015FC094878
:108EB000407D002803D00021054805F020FC05482E
:108EC000C07C002803D00349087D06F021FB1FBDAC
:108ED00000200040C027002010B5024A024900F0DF
:108EE00039F810BD75D20100782100202021020C34
:108EF00001D010211046020A01D00839104602099B
:108F000001D0091F1046820801D0891E1046420870
:108F100001D0881E7047081A704730B47446641E2A
:108F20002578641CAB4204D3635D5B00E31830BC5E
:108F300018471D46F8E702E008C8121F08C1002ABA
:108F4000FAD170477047002001E001C1121F002ACA
:108F5000FBD17047F8B516460F460446002503E0DE
:108F60003946B0476D1C641C20780028F8D128468B
:108F7000F8BDF7B582B004461646002537880020B4
:108F80003080606B00280CD0616B08783B4632461D
:108F9000039906F0D3FA0546002D02D0284605B005
:108FA000F0BD206B00280AD03B463246206B039967
:108FB00007F0FAF90546002D01D02846EFE72E20EC
:108FC000005D00280BD02E21085D3B4632460399F8
:108FD00004F044FE0546002D01D02846DFE72D2091
:108FE000005D002809D03A463146039801F028F97F
:108FF0000546002D01D02846D1E7A078002809D0E9
:109000003A463146039800F025FB0546002D01D075
:109010002846C4E7E07800280BD0E17848B23B4608
:109020003246039904F0A6F80546002D01D02846E3
:10903000B5E7606800280CD00020616808563B4600
:109040003246039907F0B4FB0546002D01D02846AF
:10905000A5E7208900280DDD019700960622022150
:1090600020460830039B07F063FC0546002D01D025
:10907000284694E7208A00280DDD019700960722F4
:10908000032120461030039B07F052FC0546002DBB
:1090900001D0284683E7208B00280DDD019700963C
:1090A0001522142120461830039B07F041FC054689
:1090B000002D01D0284672E7206A00280AD03B46DE
:1090C0003246206A039902F001FC0546002D01D0CA
:1090D000284664E7606A00280AD03B463246606A48
:1090E000039904F061FF0546002D01D0284656E79C
:1090F0002C20005D00280ADD3B46324620460399BD
:1091000006F09CFA0546002D01D0284647E7207856
:1091100000280AD03B4632462046039905F026F83F
:109120000546002D01D0284639E7284637E7014695
:10913000C8780422104201D1072070470020FCE7C4
:1091400010B501220221002001F058FD044600BFA5
:10915000002C03D0072C01D0204610BD00BF0722F1
:109160000221012001F04AFD044600BF002C03D07B
:10917000072C01D02046F0E700BF0A220021084654
:1091800001F03CFD044600BF002C03D0072C01D0A9
:109190002046E2E700BF0020DFE7000030B599B0CD
:1091A00038210BA8FFF74FF8022108A8017301210D
:1091B00081730621C173032168468187114910918B
:1091C000242102A8FFF73FF80121684601752820F5
:1091D0000690002007900C4B02AA014600900BA8B5
:1091E00000F01AFC044600BF2546002D06D000BF43
:1091F00000221146284600F0F9F800BF00BF19B060
:1092000030BD00000420002005E7010070B574DFC8
:10921000044600BF2546002D06D000BF002211469F
:10922000284600F0E3F800BF00BF002001F014FD65
:10923000044600BF2546002D06D000BF002211467F
:10924000284600F0D3F800BF00BF70BD014600BF44
:10925000064A5068012212058243044B9A6001229B
:1092600012050240DA6000BF7047000000050050A0
:1092700010B5002407E0E100064A1268505C0121A5
:1092800005F008F8641C044800788442F3D30020F9
:1092900010BD00004021002044210020FEB50646FC
:1092A0000C461746052F01D20720FEBD05F006F932
:1092B000002806D105F0DAF80546002D01D0284631
:1092C000F3E7164806601648047016480760002049
:1092D000154908601549086015E0E0008019019003
:1092E0001348006800900198807869464870019999
:1092F0000878104A694605F02FF80546002D01D080
:109300002846D2E700BF2046611ECCB20028E4D137
:10931000094A0021094800F0C3F8C6E740210020AF
:1093200044210020482100204C2100205021002011
:109330001C0B0200B5D5010031BC0100180B020066
:10934000FEB5064604200190224802906946304648
:1093500003F03AF80446002C30D11E480078C007CC
:10936000C00F1BD01C4A0C211C480088A7DF0446F4
:10937000002C13D01A48844210D0082C0ED0801C28
:1093800084420BD0112C09D01648844206D000BF6D
:1093900000221146204600F029F800BF304603F0B5
:1093A0000DF8044600BF2546002D06D000BF002260
:1093B0001146284600F01AF800BF09E00A48844226
:1093C00006D000BF00221146204600F00FF800BF73
:1093D000FEBD00001C200020FFFF00000020002038
:1093E00002300000013400004080000000BFBFF3E5
:1093F0004F8F04480449C860BFF34F8F00BF00BFC0
:10940000FEE700000400FA0500ED00E0F8B50446B0
:109410000D46164603480768324629462046B84797
:10942000F8BD00003427002070B504460D462046E4
:1094300003F092FEA188884205D82946204603F011
:1094400090FE002070BD0420FCE70000F8B5054642
:109450000C4627780C21A068484306490E58064858
:10946000006800902A463946204608302369B047F4
:10947000F8BD0000A42800203C21002010B50446BF
:109480000648007814225043044A121D81182046D1
:10949000FFF7DCFF042006F091FA10BDD82700206A
:1094A00010B503460C460D480068002801D108207D
:1094B00010BD002A01D10720FAE7002B01D10720B7
:1094C000F6E71868007C002801D00820F0E719684A
:1094D000002008744C744A6100BFE9E75421002061
:1094E000FFB581B00E4614461F4620468107890FFE
:1094F00001D1012100E00021002902D1072005B09F
:10950000F0BD002C04D100201C4908600720F6E7BC
:1095100005F0B6FF1A48076003201A49087017487B
:109520000460183400250CE0E900144A1268881819
:1095300000210170417086704460182171430C193C
:109540006D1C032DF0DB00200F4908600F490870E7
:109550000F4908701420FFF7F7FA03211420FFF7D2
:109560004DFB1420FFF7FAFA019805F05FFF05F0B4
:1095700057FF084908600020C1E70000542100207F
:1095800070210020582100205C2100206C21002047
:109590006D21002060210020FEB504460D461746CF
:1095A000264612480068002801D10820FEBD002C84
:1095B00001D10820FAE7052D01D20720F6E77069EE
:1095C000002801D10820F1E7707C012801D128464C
:1095D00000E00020029007F081F9009701902A46F0
:1095E0003146029B06F0FEFDE0E70000542100201A
:1095F00070B5044625460B480068002801D10820B4
:1096000070BD002C02D06869002801D10820F7E75E
:109610000020287407F062F90646294606F00EFE7F
:10962000EEE700005421002070B50446074804709E
:10963000012104F04DFF0546112D04D121460448B7
:10964000FFF7F2FE0546284670BD000015210020F8
:1096500068270020F8B505460C4617462088001DEF
:10966000B84201D90C20F8BD684679DF0646002EC5
:1096700001D03046F7E70320218868542088401C39
:1096800020801920218868542088401C2080208850
:1096900041196846008807F0B2F8218840182080F8
:1096A0000020E0E770B5002201210904124800689B
:1096B000FFF772FF044600220321C9030F48006828
:1096C000FFF76AFF044600BF2546002D06D000BF05
:1096D000002211462846FFF789FE00BF00BF00BFE9
:1096E0002546002D06D000BF002211462846FFF770
:1096F0007DFE00BF00BF70BD640A0200680A020060
:10970000F0B591B004460D46207D002819D0002008
:10971000099000BF08A8007901090901491C08A89F
:1097200001710079F0218843103008A9087100BF49
:10973000697B08A84171807906218843801C08A9AB
:1097400088711C210AA8FEF77EFD08A8007A022174
:109750008843811C08A80172007A10218843217D6A
:10976000002901D0012100E000210901102211404F
:10977000084308A9087200200B900D900E90207DE0
:10978000002801D009A800E000200F9000201090D0
:1097900000BF0121684681734949818100BF0020D3
:1097A0000290A97B68460172E97B4172807A0621AA
:1097B0008843811C68468172807A0821884301466B
:1097C00068468172807A102188430146684681721A
:1097D000807A4108490068468172297B01911421F1
:1097E00004A8FEF730FD03A8049002A8059001210B
:1097F00068460183002141830121818301A80890EB
:10980000A088A31D04AA0AA9A2DF0646002E02D042
:10981000304611B0F0BDA86800284DD000BF01212E
:10982000684681732749818100BF00200290287C0F
:109830006946087200BF6846407A01090901684616
:109840004172407AF02188436946487200BF6846F9
:10985000807A06218843811C68468172807A0821BB
:109860008843014668468172807A10218843014608
:1098700068468172807A4108490068468172A96809
:1098800000F08CFF0746142104A8FEF7DCFC03A8B7
:10989000049002A805906846078300214183018B4C
:1098A00081830890E08822460E3204A9A3DF064691
:1098B000002E03D03046ACE70020E0810020A8E76E
:1098C000192A00000829000010B50446082004F0F9
:1098D000BFFE002815D10E480078401C0C490870C6
:1098E0001620FFF7EBF80A48007802280FD107206E
:1098F00004F0A6FE1620FFF7DBF8002004490870EC
:1099000005E00020024908701620FFF7D1F810BDCD
:1099100010200020F8B506461749184805F07DFECE
:10992000C5B217493046FEF7ADFC0121890700900A
:10993000FEF7E5FC0746FEF72EFEC5B200213046D5
:10994000FEF75AFE01D28020054329460D4800F05B
:109950005FFB0446002C0ED0082C0CD00A48844231
:1099600009D00A48844206D000BF00221146204692
:10997000FFF73CFD00BFF8BD34240020302000205C
:1099800000002041002400200430000001340000C9
:10999000F3B593B00D461F21129111911398002831
:1099A00014D01398FFF7C3FB0446002C02D02046C6
:1099B00015B0F0BD12AA09A91398FFF7DAFA044608
:1099C000002C01D02046F3E709AE02E0002600207B
:1099D0001290002D13D0284606F050F80446002CB3
:1099E00001D02046E4E711AA01A92846FFF7C1FAF1
:1099F0000446002C01D02046DAE701AF02E0002740
:109A00000020119010A88088C3B210A80089C1B2AC
:109A10003A46304672DFCBE7F8B504460F461546A6
:109A20001E46002C01D0002D01D10E20F8BD0020D3
:109A3000484908704848066048490698086024224A
:109A400029464748FEF7E6FB00F04CF945484649F1
:109A500008604648886038214548FEF7F4FB2078C6
:109A600043490870A0788870E078C87060784870C2
:109A700008466269216942610161E268A168C260C9
:109A80008160E269A169C2618161606A00281BD0BE
:109A900038483749486238498160606A00883449EB
:109AA000496A0880606A80883149496A8880002054
:109AB00005E0616A8968095C2F4A1154401C2C49F1
:109AC000496A89888142F4D8A06A002824D02B49A9
:109AD0002B4881602649886228492548806A816030
:109AE000A06A80882249896A8880A06A0088204903
:109AF000896A0880002005E0A16A8968095C1F4A1C
:109B00001154401C1A49896A89888142F4D82C2052
:109B1000015D174820300173206A00280BD01948D6
:109B200013490862206A4088096A4880206A0088D0
:109B30000F49096A08806068002804D012480C495F
:109B400048606068486039460948FFF721FF009087
:109B500000986BE7882000208020002084200020CF
:109B6000282500205C2500204C2500207C25002095
:109B7000F02400209C250020A8250020D4250020CA
:109B8000C82500208A2000208E20002070B50446C1
:109B90002088102804D0112806D0192869D11AE08D
:109BA000A0883549088065E0002034490870A08805
:109BB0003149098888420DD1012000F0CBF80546D3
:109BC000002D07D02E480068002803D028462C49D5
:109BD000096888474EE0A079002849D129480078D3
:109BE000012806D0022813D0032820D004283DD114
:109BF0002FE0022000F0AEF80546002D07D02048E7
:109C00000068002803D028461D49096888472EE0CF
:109C1000032000F09FF80546002D07D01848006883
:109C2000002803D028461649096888471FE003200A
:109C300015490870042000F08DF80546002D07D066
:109C40000F480068002803D028460D490968884756
:109C50000DE000200C4908700C480068002804D072
:109C60000846007809490968884700E000BF00BF3E
:109C700000E000BF00BF70BD7420002071200020F4
:109C800084200020882000207D20002080200020CB
:109C900070B504460025022C02D0032C18D100E038
:109CA00000BF0D480078002811D000200A49087034
:109CB0000A48007800F04EF80546002D07D0084805
:109CC0000068002803D0284605490968884700E055
:109CD00000BF00BF70BD0000702000208820002061
:109CE0008420002010B507210148FEF7ACFA10BD12
:109CF0007620002010B51348007801281FD11248A3
:109D0000007800281BD111480078002805D074DFA6
:109D10000446002C01D0204610BD01200A490870DD
:109D20000A48007800F016F80446002C07D00848CE
:109D30000068002803D020460549096888470020AC
:109D4000EAE700002825002071200020882000205C
:109D50008420002030B587B00546A2480570002059
:109D60000090684604F0B6FF0446082C02D100209B
:109D7000009004E0002C02D0204607B030BD0098CF
:109D8000002804D00120984908700020F5E7FFF76B
:109D9000A9FF96484078002803D09248007801280F
:109DA00007D092488078002812D08E480078022888
:109DB0000ED18F480068002807D001208D49087017
:109DC00008208B490968884702E00020894908700B
:109DD0008448007801280BD184484078002804D0BA
:109DE000854804F0B2FE002802D102207D490870A7
:109DF0007C48007802280BD17C488078002804D069
:109E00007D4804F0A2FE002802D1032075490870A5
:109E10007648007B002806D172480078032802D1DA
:109E20000420704908707148007E002808D16D48F0
:109E30000078042804D100206A4908706F4908702E
:109E40006B480068002817D066480078032803D0C4
:109E50006448007804280FD16448007800280BD0AB
:109E600067480078002807D101206649087007205C
:109E70005F490968884702E000206249087018219C
:109E800001A8FEF7E0F90021684601710020029068
:109E9000684601730020049052480078012806D0DB
:109EA000022811D0032823D0042879D150E0524849
:109EB000401E02900121684601710021C182818209
:109EC00001204E49087075E04B48401E0290012168
:109ED000684601714548008981B26846C18243489D
:109EE000808881B26846818202204449087061E01E
:109EF0003E48808A81B26846C1823C48008A81B26D
:109F000068468182404806F0A1FD00281CD03748F1
:109F10000078002818D03A480078002814D1022090
:109F2000694608733848049004203849C8700021F5
:109F30003648FFF72DFD0446002C01D020461CE7D3
:109F400005202E49087002E003202C49087031E0FA
:109F50002648808B81B2684681822448008C81B279
:109F60006846C182284806F071FD00281DD01F48B0
:109F70000078002819D022480078002815D1022046
:109F8000694608732048049004202049C8700021C5
:109F90001E48FFF7FDFC0446002C02D02046ECE6EC
:109FA00007E006201549087002E0042013490870F4
:109FB00000E000BF00BF0B480078002806D001A8D1
:109FC00073DF0446002C01D02046D6E6084800681E
:109FD000002804D00948007805490968884700200E
:109FE000CBE60000882000207020002028250020DB
:109FF0008020002073200020772000207D2000207A
:10A0000071200020722000204C250020F024002028
:10A0100033B587B00446002C02D10E2009B030BD04
:10A020000025207C08A90978884233D000200590BB
:10A0300006900121684681820021C18208A806900D
:10A04000E188608A05AAA4DF0546002D03D108A88F
:10A050000078207401E02846E0E7608A0E498842D3
:10A0600017D0207D002814D000200190029003908A
:10A070000490E1886846818001218171C18A018153
:10A0800005A8039006980490608A01A9A6DF0546FA
:10A0900000E008252846C1E7FFFF0000F8B50446A8
:10A0A0000D46002C01D0002D01D10E20F8BD2868EE
:10A0B00020600020C043608228792075FF20207432
:10A0C00000BF0121684681700849018000BF221D40
:10A0D00069460120A0DF0646002E01D03046E5E7A4
:10A0E00029462046FFF70CFBE0E700000F180000B0
:10A0F00070B505460C46002D01D0002C00D170BD76
:10A100002088102804D0112807D050280FD109E04A
:10A110002146284604F07EFB0AE02146284604F04A
:10A1200048FC05E02146284604F095FC00E000BF0D
:10A1300000BF00BFE3E7000070B505461C222946BA
:10A140001448FEF767F800201349087028680028B3
:10A150000BD0082211482968FEF75CF80F487ADF17
:10A160000446002C08D0204670BD0C487BDF044616
:10A17000002C01D02046F7E70020C04308490880A2
:10A18000002008490870084A00210848FFF788F9AC
:10A19000EAE70000142600209020002092200020F2
:10A1A0009C2000209A20002041080200A80A0200FA
:10A1B00010B504462088102806D0112808D012288F
:10A1C0000ED0502810D107E0204604F027FB0CE009
:10A1D000204604F0F3FB08E0204604F065FC04E0B0
:10A1E000204604F00BFB00E000BF00BF10BD0000E4
:10A1F00010B502480068FFF7FBF910BDA80A02007D
:10A2000030B5024613880B70FF2424021C40241230
:10A210004C700224204695780446401C0D55D57894
:10A220000446401C0D5515790446401C0D555579C2
:10A230000446401C0D5595790446401C0D5530BD13
:10A24000FEB505460C46174620880930B84201D9AC
:10A250000C20FEBD684671DF0646002E01D0304658
:10A26000F7E70820218868542088401C20801B20A4
:10A27000218868542088401C2080218848190622A3
:10A2800000A90131FDF7C6FF2088801D20806846A7
:10A290000078002802D12188685402E0012021883A
:10A2A00068542088401C20800020D2E770B586B01A
:10A2B00004460E46002C04D0002E02D07068002800
:10A2C00002D10E2006B070BD0020C0432080204B7C
:10A2D0000FCB01AD0FC51F4869468882163101A812
:10A2E00063DF0546002D01D02846EBE7221D05A9B6
:10A2F0000120A0DF0546002D01D02846E2E7684690
:10A30000807DA071204601F083FF0546002D01D01D
:10A310002846D7E7204601F00BFF0546002D01D067
:10A320002846CFE73146204601F0DCFF0546002DE8
:10A3300001D02846C6E77068A062B068002801D046
:10A34000B068E0620120044908700020BAE700000C
:10A35000E00A0200301500000721002070B5054614
:10A360000C46002D01D0002C00D170BDA86A002839
:10A370001FD02088102806D011280ED0502807D0D2
:10A38000512814D10EE02146284604F068FA0FE067
:10A390002146284604F0C3FB0AE02146284604F083
:10A3A00033FB05E02146284604F032FB00E000BF05
:10A3B00000BF00BFD9E7000070B586B004460D4667
:10A3C0001646002C02D10E2006B070BD20881A4916
:10A3D000884203D019480078002801D10820F3E70B
:10A3E00000210191102168468288501C83B21448D4
:10A3F0000193815468468188481C82B210480192BA
:10A40000455468468188481C82B20D4801924654E2
:10A4100000200290039004900590218A68460181F3
:10A42000012181720021818101A8049004480590D6
:10A43000208802A9A6DFC7E7FFFF00000721002050
:10A44000082100207FB5044600BF012168468173C2
:10A450005D49818100BF5D4A03A90120A0DF054657
:10A46000002D02D0284604B070BD208800280DDDE4
:10A4700057480090228823463C335648616800F0D4
:10A48000D3FF0546002D01D02846ECE7208900289F
:10A490000EDD51480090228923463C334D48401F31
:10A4A000E16800F0C1FF0546002D01D02846DAE73B
:10A4B000208A00280EDD49480090228A23463C333A
:10A4C0004448001F616900F0AFFF0546002D01D030
:10A4D0002846C8E7208B00280EDD41480090228BDB
:10A4E00023463C333B48801EE16900F09DFF054652
:10A4F000002D01D02846B6E7208C00280EDD394813
:10A500000090228C23463C333248C01E616A00F022
:10A510008BFF0546002D01D02846A4E7208D00289A
:10A520000EDD31480090228D23463C332948401EE1
:10A53000E16A00F079FF0546002D01D0284692E738
:10A54000206B002813D001A8216B05F076FC27486A
:10A5500023463C33082201A900901E48801F00F0CA
:10A5600063FF0546002D01D028467CE700BF606BE5
:10A5700000280FD01E480090606B027923463C33C0
:10A5800001681448401C00F04FFF0546002D01D023
:10A59000284668E7A06B002813D001A8A16B04F03F
:10A5A00039FB144823463C33072201A9009009488F
:10A5B000273000F039FF0546002D01D0284652E72C
:10A5C00000BF00204FE700000A180000A62000206E
:10A5D000A8200020292A0000B0200020B820002058
:10A5E000C0200020C8200020D0200020D82000203B
:10A5F000E0200020E820002010B5044621460D4848
:10A6000000F0A6F821460C48FFF772FD2046FFF740
:10A61000CFFD204601F010FF204600F0D1F9214681
:10A620000648FFF79BFE204604F08AF82046FFF715
:10A63000ADFA10BD1824002000240020542400206E
:10A64000F8B504460E46306820600020C043E08222
:10A65000B07A207600BF01216846817011490180DF
:10A6600000BF221D69460120A0DF0546002D01D054
:10A670002846F8BD3146204603F012F80546002D65
:10A6800001D02846F5E7707A002808D031462046E8
:10A6900003F036F90546002D01D02846E9E70020F1
:10A6A000E7E7000009180000F0B585B004460D4644
:10A6B0000020019002900221684681800021C18023
:10A6C00003A802906189E08A01AAA5DF0646002E50
:10A6D00009D103AF384606F086F8009002210098B1
:10A6E000084040082870304605B0F0BDF0B58BB08A
:10A6F00004460F46E08A1549884222D006AA394608
:10A70000204603F049F80646059600200190029085
:10A7100003900490E18868468180012181710021C5
:10A72000018105A8039006A80490E08A01A9A6DF8C
:10A730000546002D04D16846808AB04200D00C2521
:10A7400000E0082528460BB0F0BD0000FFFF000028
:10A7500070B505460C462088102804D0112807D073
:10A7600050280FD109E02146284604F075F80AE088
:10A770002146284604F044F905E02146284604F025
:10A78000C1F900E000BF00BF70BD70B504460D46C2
:10A790002846FDF763FD2080656070BDF8B505466D
:10A7A0000E46002432782146641C6A547278214691
:10A7B000641C6A5400BF022C01D1012000E000207B
:10A7C0000746002F06D100BF002211461046FEF7B3
:10A7D0000DFE00BF00BF2046F8BD00007CB500BFE5
:10A7E000002348222349082005F008F9054600BF48
:10A7F0002E46002E06D000BF002211463046FEF73E
:10A80000F5FD00BF00BF00BF0020009001900120B7
:10A8100069460870684660DF044600BF2546002D83
:10A8200006D000BF002211462846FEF7DFFD00BF1C
:10A8300000BF114805F0D6F8044600BF2546002D9C
:10A8400006D000BF002211462846FEF7CFFD00BF0C
:10A8500000BF0A4805F006F9044600BF2546002D52
:10A8600006D000BF002211462846FEF7BFFD00BFFC
:10A8700000BF7CBDAC230020F9A5010029FE01002A
:10A880007CB50446A1786A460D4804F03BFA0546BB
:10A89000002D13D161781C2251430A4A88181C23C9
:10A8A0001A46694604F066FB0748807A800007492B
:10A8B0000A58214668469047054600BF7CBD000007
:10A8C000F4200020F426002034270020BC0A0200D7
:10A8D000F8B506460820009001236A462149304613
:10A8E000AADF0446204800688047B12044DF0446C0
:10A8F00000BF2546002D06D000BF00221146284685
:10A90000FEF774FD00BF00BF11DF044600BF2546FF
:10A91000002D06D000BF002211462846FEF766FD36
:10A9200000BF00BF1149486913DF044600BF254638
:10A93000002D06D000BF002211462846FEF756FD26
:10A9400000BF00BF304601F063FB162001218140AB
:10A95000074A116000BF03F089F80449486900F014
:10A9600009F8F8BD04290020802100200010001003
:10A9700080E200E010B504462046FDF7DBFB10BD89
:10A9800070B505460C4600260B480560002C09D022
:10A99000204605F07BF8064600BF002E01D0304669
:10A9A00070BD00BF05480068002802D1FEF7C8FB53
:10A9B00006463046F4E700006420002068200020AE
:10A9C00070B505462888102802D0112832D118E029
:10A9D0001A48006800280ED101F034F8044600BF80
:10A9E000002C07D016480068002803D020461449E0
:10A9F0000968884700BF11480068401C0F4908607B
:10AA000019E00E480068401E0C49086008460068BE
:10AA100000280ED1FEF794FB044600BF002C07D09F
:10AA200007480068002803D0204605490968884780
:10AA300000BF00E000BF00BF70BD00006820002024
:10AA40006420002010B5032000F02CFC044600BF59
:10AA5000002C03D0062C01D0204610BD00BF0020E2
:10AA6000FBE70000F3B581B006460025002400E0B6
:10AA7000641C042C04D2A00029490858B042F7D124
:10AA8000042C42D20298002825D0012802D00228A6
:10AA90003AD133E06000201822490D5C6000201894
:10AAA0004018407800280ED01F4800680A22504302
:10AAB00001461E4A1E480068FEF76EFD0746002F3D
:10AAC00001D11A4806706000201816494018807895
:10AAD0001849085518E016480068FEF789FD154822
:10AAE000005D610061180F4A89188978884204D195
:10AAF0006000201811464018857805E06000201895
:10AB000008494018457800BF00BF002D07D00A480B
:10AB10000068002803D02846074909688847FEBD19
:10AB2000780A0200C42400204C2000205C20002071
:10AB3000740A02005D2000205820002010B5024653
:10AB4000042A0ED2094B1B69D8439300084CE45CDD
:10AB50000123A340034201D0012300E000230B7036
:10AB600001E000200870002010BD0000000500502A
:10AB7000780A020070B50546042D09D0072D1BD0B8
:10AB80000A2D02D00D2D31D128E004F0E7FE2EE091
:10AB900013211848008876DF0446082C0BD000BF2C
:10ABA0002646002E06D000BF002211463046FEF792
:10ABB0001DFC00BF00BF1AE0FFF79CF80446082CFC
:10ABC0000BD000BF2646002E06D000BF0022114643
:10ABD0003046FEF70BFC00BF00BF08E005480088C8
:10ABE0000549884201D005F0B5F900E000BF00BF7B
:10ABF00070BD000000200020FFFF000030B50346BC
:10AC00000020042B24D2012A07D1012903D11C469C
:10AC10000D34E4B200E00024224600290FD00129BF
:10AC200002D0022911D104E05C001C19094D2A55FB
:10AC30000DE05C001C19074D6419627007E05C00B0
:10AC40001C19044D6419A27001E0072000BF00E048
:10AC5000072030BDC424002070B5044600250548F7
:10AC60000078C007C00F03D0204600F06DF80546FD
:10AC7000284670BD50200020F7B505460E4600243A
:10AC8000264806602648056026490298086002208A
:10AC9000054222D0002706E0012211463846FFF780
:10ACA000ADFF04467F1C042F01D2002CF4D0002CF1
:10ACB00005D1720804211C48FEF7F0FA0446002C66
:10ACC00002D1FEF7D5FA0446002C05D1174A00211F
:10ACD0001748FEF7E5FB044600BFE807C00F0AD09F
:10ACE00000BF0F2080041349C8600020886000BFA7
:10ACF0000F2080048861002C05D10F4A00210F48E5
:10AD0000FEF7CEFB0446002C05D10D4A01210D486B
:10AD1000FEF7C6FB04462046FEBD00004C20002086
:10AD20005020002058200020880A020001B30100B2
:10AD3000740A020000050050C9DC01006C0A020020
:10AD40004D920100700A0200F8B504460025002665
:10AD50002300FEF7E2F8180D1E1F67AFF6F5F4F3B7
:10AD6000F2F1F0EFEEEDECEBEAE9E8E7E6E5E4E33B
:10AD700000BFFA4801680F20800488430F2189042E
:10AD80000840F74988600020C86000BFF54804709B
:10AD90007BE200BF00BFF14801680720C004884380
:10ADA0000F2189040840EE4988600020C86000BF78
:10ADB000084640680F21890448400121890408425F
:10ADC0000FD000BF0846E64988600020C86000BF79
:10ADD000022C02D1E120C00001E07D2040010646A6
:10ADE0000EE000BF01208004DD49C86000208860BB
:10ADF00000BF022C01D1C82001E0FF20913006469F
:10AE0000D848047064213046FDF7DAF9D64909685C
:10AE10004843074600223946D4480068FEF7BCFB89
:10AE2000054632E200BFCD4801680720C0048843D0
:10AE30000F2189040840CA4988600020C86000BF0B
:10AE4000084640680F2189044840012189040842CE
:10AE50000FD000BF0846C24988600020C86000BF0C
:10AE6000032C02D11920400101E07D20400106465B
:10AE70000EE000BF01208004B949C860002088604E
:10AE800000BF032C01D1C82001E0FF20913006460D
:10AE9000B448047064213046FDF792F9B24909685C
:10AEA0004843074600223946B0480068FEF774FB65
:10AEB0000546EAE100BFA94801680720C0048843AD
:10AEC0000F2189040840A64988600020C86000BF9F
:10AED000084640680F21890448400121890408423E
:10AEE0000FD000BF08469E4988600020C86000BFA0
:10AEF000042C02D17D20400101E07D204001064666
:10AF000023E000BF012080049549C86000208860CC
:10AF100000BF042C16D1FF20913015E0B4E1A8E168
:10AF2000A6E193E180E16DE161E125E123E121E129
:10AF30001FE11DE107E1EEE0D7E0BEE0A7E08EE013
:10AF40005CE014E0FF2091300646864804706421DE
:10AF50003046FDF735F98449096848430746002221
:10AF6000394682480068FEF717FB05468DE100BFB1
:10AF70007A4801680720C00488430F2189040840EB
:10AF8000774988600020C86000BF084640680F21EC
:10AF9000890448400121890408420ED000BF0846B8
:10AFA0006F4988600020C86000BF052C01D1C8200F
:10AFB00001E07D20400106460EE000BF0120800434
:10AFC0006749C8600020886000BF052C01D1C820F7
:10AFD00001E0FF209130064662480470642130464B
:10AFE000FDF7EEF8604909684843074600223946F4
:10AFF0005E480068FEF7D0FA054646E100BF5748B4
:10B0000001680720C00488430F218904084054497F
:10B0100088600020C86000BF084640680F2189048E
:10B02000484001218904084206D000BF08464C4927
:10B0300088600020C86007E000BF01208004484904
:10B04000C8600020886000BF46480470464800225F
:10B05000016846480068FEF79FFA054615E100BF03
:10B060003E4801680720C00488430F218904084036
:10B070003B4988600020C86000BF00BF01208004F9
:10B08000C8600020886000BF36480470FDE000BF43
:10B09000334948680121C9048143314A9160012143
:10B0A000C9040140D16000BF2F48002201682F4829
:10B0B0000068FEF771FA0546E7E000BF28494868D6
:10B0C0000121C9048143264A91600121C90401403C
:10B0D000D16000BF24480068820081180022234804
:10B0E0000068FEF759FA0546CFE000BF1C494868E2
:10B0F0000121C90481431A4A91600121C904014018
:10B10000D16000BF18480022016818480068FEF7A7
:10B1100043FA0546B9E000BF114948680121C90456
:10B1200081430F4A91600121C9040140D16000BFF1
:10B130000D4800688200811800220C480068FEF764
:10B140002BFA0546A1E000BF0F2080040449C86027
:10B150000020886000BF0348047096E0542000205F
:10B1600000050050482000204C2000206C0A0200FE
:10B1700000BF00BF00BF00BF45480068FEF738FAB7
:10B1800005461120061B002E23D0002D21D10120C1
:10B19000000540490860012E10D9C82171430846B6
:10B1A0006421FDF70DF83C49096848430746002231
:10B1B000394637480068FEF7EFF9054600BF3548C5
:10B1C00000680F21890408403449C8600020886065
:10B1D0000CE000BF2F4800680F21890408402F4968
:10B1E00088600020C86000BF2A4908604DE000BFA9
:10B1F0000F208004294988600020C86000BF2848CB
:10B20000047042E000BF0720C00424498860002089
:10B21000C86000BF00BF01208004C86000208860B3
:10B2200000BF1F48047030E000BF0D2080041B49A0
:10B2300088600020C86000BF00BF0120C004C86053
:10B240000020886000BF164804701EE000BF032085
:10B250000005124988600020C86000BF00BF0320BD
:10B260008004C8600020886000BF0D4804700CE0B6
:10B2700000BF00BF0F2080040849C860002088601C
:10B2800000BF0748047000E000BF00BF2846F8BDBB
:10B29000700A0200542000204C20002000050050BD
:10B2A0004820002070B50246002020E08400124DA6
:10B2B0002C59A400114D64192168012484401442C2
:10B2C00001D0032400E00024234603252D040C466E
:10B2D000AC4321461C0421430524240707252D02E5
:10B2E00064198500044E7559AD006151401C042855
:10B2F000DCD3002070BD0000780A02000007005077
:10B3000010B5044620780221FFF7ACFB10BD000009
:10B31000F8B50546154A16490320FFF7ADFC04466B
:10B3200000BF2646002E06D000BF00221146304640
:10B33000FEF75CF800BF00BF69460020FFF720FB66
:10B34000044600BF2646002E06D000BF002211464C
:10B350003046FEF74BF800BF00BF68460078022871
:10B3600001D1012000E000202870F8BD75AB01007C
:10B37000CD0C00000021C9438200054B99500428E0
:10B3800004DB0B46011F024A403253547047000051
:10B390007827002001468800014A105870470000B5
:10B3A00078270020F7B585B00B460020C0430490F5
:10B3B000002A01D0002000E004200390002A01D0E0
:10B3C000042000E00820029003991DE08800124C40
:10B3D0002058401C17D10846059C0093019246B2A4
:10B3E0000D4D20352E5585000B4E009B7351019A53
:10B3F000002A04D166B2051F074F40377E5500BFB3
:10B4000048B2049003E0491C02988142DED300BF99
:10B41000049808B0F0BD00007827002001460148DC
:10B420004056704798270020F0B58FB007460D466C
:10B4300014461E4600BF002D01D0012000E0002070
:10B4400000900098002806D100BF00221146104647
:10B45000FDF7CCFF00BF00BF00BF002C01DD0120C5
:10B4600000E0002000900098002806D100BF0022D4
:10B4700011461046FDF7BAFF00BF00BF1C2107A808
:10B48000FCF7E1FE6946087F02218843801C69467B
:10B490000877002008900A900B900C900D9000BF48
:10B4A000012108A881766846078700BF0020019027
:10B4B000317868460171717841718079062188433D
:10B4C000811C68468171807908218843014668465D
:10B4D00081718079102188430146684681718079A5
:10B4E0004108490068468171142102A8FCF7ABFEAF
:10B4F0000EA8029001A803906846048200214182B0
:10B500008482069502AA07A902480088149BA2DF3C
:10B510000FB0F0BDA6200020F0B587B03E480078FF
:10B52000142148433C49091D4418E7680C21A068D0
:10B5300048433A494018008906900C21A0684843C6
:10B5400036494018408905900C21A068484333498A
:10B5500040184068049003F0C3FC0146029038464E
:10B56000FCF72EFE002901D1012000E0002003900D
:10B57000059906984843049946186088C019A1881F
:10B5800045180020264908600398002804D003F0DD
:10B59000A7FC618888420AD00398002804D0B542ED
:10B5A00002D1A088002802D0A06802280CD103F0A4
:10B5B00097FC014602903846FCF702FE19490860E4
:10B5C000032004F0FBF924E003F08AFC0190A18839
:10B5D000C8190199FCF7F4FD88081349086003F0C5
:10B5E0007FFC014601902846FCF7EAFD002901D1C5
:10B5F000012000E000200290B54206D00298002809
:10B6000003D1B1B2A8B204F079FC022004F0D6F95B
:10B6100000BF07B0F0BD0000D8270020A4280020FC
:10B620002C210020302100202821002010B50848BE
:10B630000078142148430649091D4418207804283D
:10B6400002D000F0A5F801E004F07EFB10BD000080
:10B65000D827002010B50F480078142148430D4921
:10B66000091D441860880C4908602078012804D01E
:10B67000032805D0042809D105E004F065FB06E0A5
:10B68000FFF74AFF03E005F0CCF800E000BF00BF81
:10B6900010BD0000D82700203C21002010B5034831
:10B6A0004078002801D0FFF7D5FF10BDD827002033
:10B6B0000023142141430C4A535414214143891857
:10B6C0004B8001231421414389188B6000231421EE
:10B6D00041438918CB601421414389180B6114211F
:10B6E000414389188B807047DC270020FFB581B06B
:10B6F000064617461C4840780A2830D01A48007879
:10B700001949497844180A2C00D30A3C1420604394
:10B710001549091D0E541420604340180761142078
:10B7200060434118029805C8CA60886014216143CB
:10B730000D4A121D89180498488014216143891804
:10B740000A988880101F4078401C111F48700748D5
:10B750000078002801D1FFF77DFF002500E00425D7
:10B76000284605B0F0BD0000D82700202421002085
:10B7700010B50020054908704870002403E02046F9
:10B78000FFF796FF641C0A2CF9D310BDD8270020C0
:10B7900010B50848007814225043064A121D81183B
:10B7A0000020FDF753FE00F007F8002004F006F932
:10B7B00010BD0000D827002010B509490878FFF710
:10B7C00077FF07484078401E0549487008460078D2
:10B7D000401CC0B208700A2801D10020087010BDBA
:10B7E000D8270020FEB51F480068002836D01D4825
:10B7F0000068056803F014FE01901B4804682146A8
:10B80000019804F029FCC61C18480078002801D1D2
:10B8100003F018FEAE4201D2284600E0304604197B
:10B820002402240A204603F0F5FD03F0F9FD009000
:10B830000199009804F010FCC71C2046019904F0FF
:10B840000BFC874209D903F0EBFD074603F0E2FD4C
:10B850002F20FCF75FFC04F05BFD01E003F010FE1D
:10B86000FEBD00005C21002060210020742100202A
:10B8700001460888062808DB08881922D201904270
:10B8800005DD0888104A904201D00720704748889B
:10B89000062808DB48881922D201904205DD488835
:10B8A000094A904201D00720F0E70888064A9042F2
:10B8B00008D04888904205D008884A88904201DD27
:10B8C0000720E3E70020E1E7FFFF0000FFB581B0BC
:10B8D00006460D4614462088801D0499884202D9E8
:10B8E0000C2005B0F0BD3046FFF7C2FF0746002F21
:10B8F00001D03846F5E70520218868542088401C8F
:10B9000020801220218868542088401C20802288B2
:10B910005119308804F073FF218840182080228854
:10B920005119708804F06BFF218840182080002096
:10B93000D7E710B5044600BF002211462046FDF7A8
:10B9400055FD00BF10BD000030B587B01C21684612
:10B95000FCF779FC002000900520C00301900F2027
:10B96000000402900321684601730E48418968462D
:10B97000C181002101740C4805900C48069068466E
:10B98000FEF7DAFB044600BF2546002D06D000BFB7
:10B99000002211462846FDF729FD00BF00BF07B071
:10B9A00030BD000018240020C9E7010033B90100B0
:10B9B00038B51F4802F098F8002829D11D480078B2
:10B9C00000280AD01C484069002820D000200090A0
:10B9D000194841696846884719E0184800780028E6
:10B9E00002D11548456801E01348856800222946C0
:10B9F00013480068FDF7D0FD0446002C07D00E4820
:10BA00008069002803D00C488169204688470AE0F5
:10BA100009484069002806D0012000900648416985
:10BA20006846884700BF00200249087038BD000002
:10BA30009E20002090200020142600209A20002024
:10BA4000A80A020010B5012200210846FFF7D6F827
:10BA5000044600BF002C03D0072C01D0204610BDA7
:10BA600000BF072202210120FFF7C8F8044600BFEB
:10BA7000002C03D0072C01D02046F0E700BF0422A1
:10BA800002210020FFF7BAF8044600BF002C03D0C3
:10BA9000072C01D02046E2E700BF0020DFE70000CE
:10BAA00070B503460C460820002114E00C254D43D8
:10BAB0000B4EAD19AD7A25420CD00A4DAB4205D0E4
:10BAC0000C254D43AD192D899D4202D111600020F6
:10BAD00003E00520491C0029E8D000BF70BD00002C
:10BAE00028270020FFFF000010B5044601210C208C
:10BAF00060430A4A80188172891E0C2060438018B6
:10BB00000181FF210C2060438018C1720C21614328
:10BB100088180721FCF797FB10BD0000282700209C
:10BB200010B514484068C105C90D002920D00A4647
:10BB3000103A50B200280DDA0E4B1C330407240FC4
:10BB4000083CA408A4001B598407E40EE3401B062C
:10BB50009B0F0BE0084B032424021B198408A4004C
:10BB60001B598407E40EE3401B069B0FD8B210BD9F
:10BB70000420FCE700ED00E000E100E010B51B4808
:10BB80000068082108422ED119480068401C184955
:10BB9000086018480068002803D0042004F03AF92F
:10BBA00023E001F0FFFF002803D0022004F032F967
:10BBB0001BE011480068002812D00C480078C0072C
:10BBC000C00F09D1094800680121084307490860EE
:10BBD000002004F01FF908E0032004F01BF904E042
:10BBE00004F0ECF801E004F0F9F810BD1821002091
:10BBF00030210020282100202C21002010B50B48E6
:10BC00000068082108420ED1084800680221084255
:10BC100005D0064800680121084304490860022055
:10BC200004F0F8F801E004F0D9F810BD1821002064
:10BC3000F8B5002534E0E8001C490968441821786B
:10BC40000120884006461A480068064226D0184857
:10BC50000068B04316490860207802F0F7FB0746F9
:10BC60002178012088401349096808402278394624
:10BC70009140884211D16078012800D100E0002075
:10BC800078400121484000906068002804D0009B63
:10BC9000D9B220786268904700BF00BF681CC5B267
:10BCA000054800788542C6DBF8BD00004021002031
:10BCB000502100204C21002044210020FEB50446E4
:10BCC0000E46A1786A46284803F01CF80546002D68
:10BCD00049D160780C21484324494018807A40219A
:10BCE0000840402801D0022E01D1214F04E0012E4E
:10BCF00001D1204F00E0204FA0781C2250431F4A62
:10BD0000811800231C226846B8470546002D1AD129
:10BD1000022E18D060780C21484314494018807ACC
:10BD20004021884361780C225143104A8918887257
:10BD300060781C225043124A81181C231A46684618
:10BD4000B847054600BF022E0DD020780C2148438D
:10BD50000C494018807A80000B490A5821466846F1
:10BD60009047054600BFFEBDF42000202827002094
:10BD7000B1F2010089F10100DDFC01003026002054
:10BD8000F426002034270020AC0A0200F8B505464E
:10BD90000E461B4F00242EE01C206043194940181A
:10BDA000807EFF2826D13078022814D01C206043E2
:10BDB0004018807E022188431C216143114A891862
:10BDC00088761C21614389180846103007223146C5
:10BDD000FCF720FA0BE01C2060430A494018807EE3
:10BDE000410849001C206043064A801881762C7067
:10BDF000002702E0641C072CCED300BF3846F8BDF4
:10BE00004380000030260020F8B505460E46174650
:10BE10000520009000241BE0002D06D11C2060436B
:10BE20000E494018008BB8420DD0002D0FD01C21B8
:10BE300061430A4A89180846103007222946FCF750
:10BE400014FA002803D134600020009002E0641C42
:10BE5000072CE1D300BF0098F8BD00003026002079
:10BE60007CB50546A9B26A46084802F04BFF044675
:10BE7000002C09D15421684602F094FF0446002C9E
:10BE800002D1284602F06EFE20467CBDF420002040
:10BE9000F8B507460D46287815281DD16946104883
:10BEA000FEF702FC044600BF2646002E06D000BF67
:10BEB000002211463046FDF799FA00BF00BF6846E0
:10BEC0000078002801D004F045F82878152802D120
:10BED0003846FDF735FA00E000BF00BF0020F8BD8E
:10BEE000182400207FB50546039502F0FFFF0446A5
:10BEF00000BF2646002E06D000BF00221146304665
:10BF0000FDF774FA00BF00BF03A800F065FE044609
:10BF100000BF2646002E06D000BF00221146304644
:10BF2000FDF764FA00BF00BF052101A80130FCF74E
:10BF30008AF96846407941084900491C68464171C0
:10BF400040790221884301466846417140791C21AD
:10BF5000884301460C31684641714079202188436D
:10BF6000014668464171072181711021C1710B485A
:10BF700000900121684601716946094801F00EF8F8
:10BF8000044600BF2646002E06D000BF0022114600
:10BF90003046FDF72BFA00BF00BF7FBD91BE010008
:10BFA0004020002031B50949684600F019FA0446DE
:10BFB00000BF2546002D06D000BF002211462846AE
:10BFC000FDF714FA00BF00BF38BD00008421002037
:10BFD000F8B504460D462878002803D12088FEF7DE
:10BFE00077FC12E0032201212046FEF7E5F9064620
:10BFF00000BF3746002F06D000BF0022114638464A
:10C00000FDF7F4F900BF00BF00BF00BFF8BD00009E
:10C0100070B58AB00646002003903F49304600F0D4
:10C0200097FD0446002C75D104A93B4800F01CFD87
:10C030000446002C4ED100BF2546002D06D000BF7F
:10C04000002211462846FDF7D1F900BF00BF08982D
:10C050000146103107223148FCF7DCF810222F4846
:10C06000C01D0899FCF7D6F811222C481830049905
:10C07000FCF7D0F80498014612310A2227482A30EA
:10C08000FCF7C8F8254800DF044600BF2546002D10
:10C0900006D000BF002211462846FDF7A7F900BFD1
:10C0A00000BF012003900420019003A8029000200B
:10C0B00000906946184800F08DF9044600BF2546F7
:10C0C000002D06D000BF002211462846FDF78EF94C
:10C0D00000BF1FE01149104800F002FE044600BFF7
:10C0E0002546002D06D000BF002211462846FDF748
:10C0F0007DF900BF00BF094800DF044600BF2546A8
:10C10000002D06D000BF002211462846FDF76EF92B
:10C1100000BF00BF0AB070BD84210020D0280020DD
:10C12000704700000149086070470000802100202E
:10C1300010B58EB004461C2107A8FCF784F86846A9
:10C14000007F08218843411868460177007F10214D
:10C150008843411868460177002008900A900B90A8
:10C160000C900D90A179684681712849818000204A
:10C17000009000BF68460078010909016846017017
:10C180000078F02188436946087000BF00BF684608
:10C19000407801090901491C684641704078F02146
:10C1A000884310306946487000BF68468078062191
:10C1B0008843811C68468170807808218843014645
:10C1C00068468170807810218843411868468170E4
:10C1D000807841084900491C68468170142102A8F2
:10C1E000FCF731F801A80290684603900021018213
:10C1F00041821721818200200690A08823461033B7
:10C2000002AA07A9A2DF0EB010BD00003115000080
:10C2100010B58EB004461C2107A8FCF714F8684638
:10C22000007F04218843011D6846017700200890A3
:10C230000A900B900C900D90A17968468171284965
:10C2400081800020009000BF684600780109090144
:10C25000684601700078F02188436946087000BF85
:10C2600000BF6846407801090901491C68464170D1
:10C270004078F021884310306946487000BF684616
:10C28000807806218843811C684681708078082167
:10C2900088430146684681708078102188430146B2
:10C2A00068468170807841084900491C6846817061
:10C2B000142102A8FBF7C7FF01A80290684603906B
:10C2C0000021018241821421818200200690A088F1
:10C2D0002346083302AA07A9A2DF0EB010BD000052
:10C2E0003215000030B58FB004460D461C2108A859
:10C2F000FBF7A9FF08A8007802218843811C08A841
:10C300000170002009900B900C900D900E90A17977
:10C3100068468172284901810020019000BF68466B
:10C32000007901090901491C684601710079F02171
:10C33000884310306946087100BF00BF68464079E5
:10C3400001090901684641714079F0218843694635
:10C35000487100BF6846807906218843811C684681
:10C36000817180790821884301466846817180790E
:10C37000102188430146684681718079410849004F
:10C38000491C68468171142103A8FBF75CFF02A8D1
:10C39000039001A804900221684681820021C18295
:10C3A000022101830795A0882346203303AA08A908
:10C3B000A2DF0FB030BD0000341500000146014877
:10C3C000704700009180000002460148704700005D
:10C3D00091800000024601487047000091800000F3
:10C3E000024600BF11480078002801D1104870476C
:10C3F00000BF002902D10E48801DF8E7002A02D1B3
:10C400000B48801DF3E700BF1078012806DA10788A
:10C410000C235843074B1858002801D10448E6E77D
:10C4200000BF107808700020E1E70000F020002035
:10C430000880000034270020F0B58FB00446FF20AC
:10C440000D9000260020079000BFFE4800780028CD
:10C4500001D10FB0F0BD00BF00BFFB48006800284D
:10C4600000D1F6E700BF0CA800F0A8FB054600BF0E
:10C470002F46002F06D000BF002211463846FCF799
:10C48000B5FF00BF00BF002008900025201D0A90C6
:10C490002A2168468185FF2108A881740021017442
:10C4A00000200E902088102813D0A0880EAA022108
:10C4B000FFF7F6FA0546002D0BD10C210E984843E4
:10C4C000E2494018C17A08A881740E98C1B208A840
:10C4D0004174208817287AD008DC10280DD0112844
:10C4E0007BD0132875D0142874D1B4E0182872D0EA
:10C4F0001C2871D05228F7D17DE20EAF3A460121B7
:10C50000D348FFF7CDFA00900098002807D1022108
:10C510000C2238685043CD4A8018817201E0042013
:10C52000009000980546002D50D10126112108A841
:10C5300001710E98C1B208A84174A1880C220E980E
:10C540005043C24A8018018102210C220E985043A8
:10C55000BE4A801881720C220E995143BB4A88183A
:10C560000722A11DFBF756FE207D30400AD0207D1A
:10C570004008B849085CFF280AD0207D4008085CC4
:10C580000D9005E0B24A0DA9A01DFFF73DFC054640
:10C59000002D1BD10D98C1B20C220E985043AB4A0E
:10C5A0008018C1720C210E98484311464018807AB9
:10C5B000082108430C220E995143A44A8918887215
:10C5C00008A90D9888740CA8FEF75AF922E2FAE03F
:10C5D00003E085E01DE2ABE116E20C210E98484332
:10C5E0009A494018807A022188430C220E995143BF
:10C5F000964A891888720C210E98484311464018B3
:10C60000807A0821084008280ED10C210E98484352
:10C6100011464018807A8021084080280FD10021DF
:10C620000CA8FFF74BFB0AE008A8807CFF2806D087
:10C6300008A9887C02F096FAFF2008A988741021C6
:10C640000C220E985043814A8018817201261220D4
:10C6500008A90871DEE10C210E9848437B49401877
:10C66000C07AFF2823D1E2890DA90020FFF7CCFB77
:10C670000546002D1BD10D98C1B20C220E985043D7
:10C68000724A8018C1720C210E9848431146401816
:10C69000807A082108430C220E9951436B4A89186D
:10C6A000887208A90D9888740CA8FEF7E9F80C2187
:10C6B0000E98484365494018C07AFF2805D01C21D0
:10C6C0000E9848436449401807901C230E9959431B
:10C6D000624BCA18A0880023079982DF054699E1BA
:10C6E000132008A908710C210E9848435749401897
:10C6F000807A042108430C220E995143534A891829
:10C70000887201260C210E98484311464018C07AC1
:10C71000FF2819D10C220E9850430A4681180DA803
:10C72000FFF734FB0546002D0BD108A90D9888743E
:10C730000D98C1B20C220E985043444A8018C17221
:10C740001DE0089501261AE0162008A90871182294
:10C750000E995143424A8918084608300E21FBF7CA
:10C7600072FD0C210E98484338494018807A4021C8
:10C7700008430C220E995143344A891888720020CC
:10C7800004900C210E98484330494018C07A1C216F
:10C790004843324941180591002106911C210E9809
:10C7A00048432D4940180190002002900390A08832
:10C7B00001AB254A121D00217FDF0546002D01D067
:10C7C0000895002626E12048407A400840001E498E
:10C7D00048720C210E9848431C494018807A042165
:10C7E00088430C220E995143184A891888721420E4
:10C7F00008A908710126A07900280AD00C220E99F8
:10C800005143124A8918C87AFFF72AFBA079089089
:10C810008DE0E0794007C00F7ED008A8807CFF281B
:10C820007AD00C210E98484308494018807A082194
:10C8300008430C220E995143044A89188872E07A01
:10C8400080070FE0F0200020342700202827002058
:10C85000FFFF000000210020F426002030260020E9
:10C8600010270020C00F0FD008A8807C1C2148434F
:10C8700076494018807E4108490008A8807C1C2227
:10C880005043724A801881760C210E9848437049B3
:10C890004018C07AFF284AD00C210E9848436C49B2
:10C8A000085C022820D00C230E9A5A430B46D1185C
:10C8B00008AA927C1C235A43644BD21810461030AD
:10C8C0000722FBF7A7FC08A8807C1C2148435F498E
:10C8D0004018807E0221884308A9897C1C2251438C
:10C8E0005A4A891888761EE01C210E9848435949F7
:10C8F0004018418A08A8807C1C225043534A801863
:10C90000018308A8807C1C21484311464018807E82
:10C910004108490008A800E009E0807C1C2250433F
:10C920004A4A8018817601210CA8FFF7C7F971E007
:10C93000A079000901283DD1A0790007000F012846
:10C9400038D10C210E98484341494018807A08217B
:10C95000084008282ED118220E9951433E4A8918C2
:10C9600008180E21FBF76FFC162008A908710C218E
:10C970000E98484336494018807A202108430C22FB
:10C980000E995143324A891888720C210E984843F7
:10C9900011464018807A402108430C220E995143D9
:10C9A0002B4A891888722D48407A022108432B4966
:10C9B00048721CE00C210E98484325494018807AA3
:10C9C000802108430C220E995143214A891888720C
:10C9D000152008A908712148807A8000204A115842
:10C9E0000CA888470546002D01D01E48089000205D
:10C9F000089001260EE01948807A8000184A1158E4
:10CA00000CA88847089005E0132008A908710126A2
:10CA100000E000BF00BF002E16D009A90CA8089A9C
:10CA2000FCF7F4FC08A8007912280DD100BF0C21F6
:10CA30000E98484306494018807A012802D00E9883
:10CA4000FFF752F800BF00BF00BF02E5302600200C
:10CA500028270020F426002010270020342700205B
:10CA6000CC0A02004180000070B58AB005460C4631
:10CA700000BF31480078002802D130480AB070BDAC
:10CA800000BF002D02D12D48801DF7E7002C02D1F8
:10CA90002A48801DF2E700BF2878012806DA2878A6
:10CAA0000C21484326490858002801D12348E5E7CE
:10CAB00000BF00BFA878072807DAA8781C214843E0
:10CAC00020494018807EFF2802D11C480830D5E755
:10CAD00000BF00BF0020E060A8781C21484319492E
:10CAE0004118216100216161174860600020A06049
:10CAF00003A82060A97801AA144802F003F90646A9
:10CB0000002E17D11C231A4601A903A802F032FAFD
:10CB10000646002E0ED1E060A8781C214843094942
:10CB20004118216100216161074860600020A06018
:10CB300003A820603046A1E7F02000200880000014
:10CB4000342700203026002040270020F420002039
:10CB500030B50446002901D1154830BD00BF087822
:10CB6000012806DA08780C256843124D2858002859
:10CB700002D10F48801FF0E700BFFF208870052317
:10CB800000220FE00C2050430B4D40190089A042B9
:10CB900007D14A700C2050434019C07A8870002396
:10CBA00002E0521C002AEDD000BF1846D5E7000075
:10CBB0000E8000003427002028270020014600298D
:10CBC00001D104487047FF20087048708870C87011
:10CBD0000020F7E70E8000007FB50646002E02D148
:10CBE000374804B070BD00240FE000BF00210C20C6
:10CBF0006043344A11500C206043801841720C206D
:10CC000060438018817200BF641C002CEDD00024AA
:10CC100003E02046FEF768FF641C002CF9D01821C1
:10CC20002948FBF710FB002406E0204601F09AFF9C
:10CC3000FF2026490855641C072CF6D3542168466A
:10CC400081810721C18122480290224902A802F075
:10CC50000DFA0546002D30D101201F4908703078AB
:10CC6000002821D100241CE0A1B26A46194802F034
:10CC700049F80546002D0FD11C216143174A881839
:10CC800000231C22694602F075F90546002D07D0E5
:10CC900000201149087006E000200F49087002E0EA
:10CCA000641C072CE0D308E06A469089D28950437F
:10CCB00081B2084802F076F80546284691E7000060
:10CCC0000E800000342700201027002000210020C3
:10CCD000A5CD0100F4200020F02000203026002007
:10CCE00070B504460E4600BF29480078002801D1DF
:10CCF000284870BD00BF002C02D12648801DF8E7EF
:10CD0000002E02D12348801DF3E700BF20780128C0
:10CD100006DA20780C2148431F490858002801D121
:10CD20001C48E6E700BF1B4DED1EA078FF2817D179
:10CD30006078FF2829D060780C21484317494018B3
:10CD4000807A0221084002281FD160780C225043CB
:10CD5000124A811807223046FBF75CFA002514E0DE
:10CD6000A0781C2148430E494018807E02210842C9
:10CD70000BD1A0781C225043094A8018014610317B
:10CD800007223046FBF746FA00252846B1E70000A7
:10CD9000F0200020088000003427002028270020F1
:10CDA00030260020FFB591B00F461D4600BF7348E6
:10CDB0000068002801D115B0F0BD00BF1A985428B2
:10CDC00000D9F8E7012007900DA8FFF7F7FE064607
:10CDD00000BF0696069E002E06D000BF0022114618
:10CDE0000698FCF703FB00BF00BF002108A80175EF
:10CDF00001760C951A980B900020069016E0069884
:10CE000081B208AA5E4801F07DFF0646002E0AD1D5
:10CE1000082208A91198FBF728FA002803D108A9CD
:10CE20000698887505E00698401C06900698072825
:10CE3000E5D300BF08A8807DFF2875D0032F0AD155
:10CE40001A98542803D1202008A9087672E04020BF
:10CE500008A908766EE04B49681A1C21FBF7B0F967
:10CE60000446072C1CD20AA80F90139800280FD153
:10CE700008A9887D01218140434A1268114201D0EE
:10CE8000012100E00021002902D10020079051E09B
:10CE900008A9887D03F0CAFC202008A9087649E08B
:10CEA0003A49681A1C21FBF78BF90446002C1AD169
:10CEB0000AA80F90202108A801764475002004904C
:10CEC000334905911C20604330494018019008A85F
:10CED000807D1C2148432B494018029001A80C90EA
:10CEE00018200B9026E02B49681A1821FBF768F9E7
:10CEF0000446002C19D1302108A80176447501217F
:10CF0000C1750C20604324494018807A02210840F2
:10CF100002280FD008A9497D182251431D4A8818BC
:10CF20001821FBF790F905E026E00020079040204B
:10CF300008A90876079801281ED1032F06D108A951
:10CF4000087E0321084308A908760EE0022F06D1C7
:10CF500008A9087E0121084308A9087605E008A968
:10CF6000087E0221084308A908760AA80F900EA996
:10CF70000DA8139AFCF74AFA00BF1CE734270020DB
:10CF8000F420002030260020FC200020F426002081
:10CF900040270020102700202827002070B50546D4
:10CFA0000C4600BF29480078002801D1284870BDF0
:10CFB00000BF002D02D12648801DF8E7002C02D1C9
:10CFC0002348801DF3E72068002802D12048801DF7
:10CFD000EDE720480068002834D11E492068086029
:10CFE0000522611D1B48001DFBF714F92079194922
:10CFF00088720846007A4008400008720846007AA5
:10D0000002218843801C134908720846007A0421D3
:10D010008843104908720846C07940084000401C07
:10D02000C8710846C07902218843801C0949C8712B
:10D030000846C079042188430649C8710020287039
:10D04000002601E0024E361F3046B0E7F0200020F7
:10D050000880000034270020014614480078144A54
:10D06000127890421DD011480078401C0F4A107071
:10D0700010460078022801D1002010700B4800787B
:10D0800080000C4A105808600B4A08681268801823
:10D09000094A1060104600680002000A1060012072
:10D0A00070470020086000BFFAE700006C210020F4
:10D0B0006D210020642100206021002010B50C4863
:10D0C00000680821084210D10A480068401C09493C
:10D0D000086000F067FD002802D1FEF7A7FA06E01D
:10D0E0000548007802F06AFC01E000F04DFF10BD39
:10D0F000182100203021002024210020F0B5034613
:10D10000002420E0134E306806689E4203D906686A
:10D11000F61A06601BE006689B1B06683419002699
:10D1200006600C4E35680B4FC6693E60C668002E1F
:10D1300008D00E193602360A4660C6688660166840
:10D14000C661156000BF034800680028DAD100BF3F
:10D15000F0BD00005C21002001468A68C868801A82
:10D160007047C26883881A4003689954C268521C89
:10D17000C260704730B504461088C01C984201D97F
:10D180000C2030BD0220158848551088401C1080A6
:10D190000120158848551088401C108015884C5572
:10D1A0001088401C10800020EBE7000010B50446FA
:10D1B000002C02D0112C08D100E00AE006480068DB
:10D1C000082108430449086003E02046FCF756F9AB
:10D1D00000BF00BF10BD00001821002010B50C4892
:10D1E0000068401C0A49086003280DD009480078EF
:10D1F000022804D00748007802F0E0FB07E0064868
:10D20000007802F007FE02E00D20FCF737F910BDB0
:10D2100034210020242100202521002010B50A48B7
:10D220000078012804D0022808D0032809D102E0A0
:10D2300002F090FD06E0FFF741FF03E002F0DEFDA3
:10D2400000E000BF00BF10BD2421002070B50446DF
:10D25000204628DF0546FFF7A9FF70BDF8B5044654
:10D260000D46164632462946204629DF0746FFF777
:10D270009DFFF8BD70B504460D46E0B2FCF7D4F949
:10D28000204670BD3EB500BF68460078010909011F
:10D29000491C009168460078F021884310300090C6
:10D2A00000BF0C221EA168467CDF044600BF254655
:10D2B000002D06D000BF002211462846FCF796F844
:10D2C00000BF00BF0320000278DF044600BF2546F0
:10D2D000002D06D000BF002211462846FCF786F834
:10D2E00000BF00BF002001900290FF2191316846ED
:10D2F00081804900C180052101810D49418101A83A
:10D300007ADF044600BF2546002D06D000BF00226C
:10D3100011462846FCF76AF800BF00BF3EBD00007A
:10D320004346585F46414C4C53454E530000000065
:10D330001405000001460020704702460020704797
:10D340000246002070470000F8B50546002700207F
:10D3500000900026687818214843334940184068F7
:10D36000002827D068780C21484330494018807A3B
:10D370008021084080281DD168780C2148432B4922
:10D380004018807A40210840402813D0687818213E
:10D39000484325494018074608376878182148430C
:10D3A00021494018808880B200906878182148434D
:10D3B0001D490E5869780C2251431C4A8918088966
:10D3C00033463946009AA9DF04460B2C0BD10126BF
:10D3D00069780C225143154A891808893346394621
:10D3E000009AA9DF0446002C00D0114C012E18D160
:10D3F00069780C2251430D4A891808890D4A0C217D
:10D40000A7DF0446002C0CD00B48844208D0082C1F
:10D4100006D0801C844203D0112C01D0002400E0EF
:10D42000034C2046F8BD00001027002028270020CC
:10D4300041800000FFFF00000230000070B505468B
:10D440000C466178182251430D4A88183823182257
:10D45000294601F08FFD0646002E0ED16078182176
:10D460004843074940184068401C06D100216078B5
:10D4700018225043024A80184160304670BD0000B7
:10D4800010270020F3B585B00C4603270E2004902A
:10D4900061780C2251432D4A891808893B4604AA19
:10D4A0006946AADF0646002E4DD161781822514305
:10D4B000274A89180846083069460A8AFAF7D5FECD
:10D4C000002812D160780C21484320494018807A06
:10D4D00002210840022836D06178182251431C4AA4
:10D4E00088181821FAF7AFFE2DE06078182148431C
:10D4F000174940184068002801D0164D00E0164D2D
:10D5000060781821484312490F506946098A6078AB
:10D51000182250430E4A8018416061781822514306
:10D520000B4A89180846083069460A8AFAF772FEDB
:10D53000607818225043064A81183823182205982B
:10D54000A847064600BF002007B0F0BD28270020EE
:10D5500010270020B1F2010089F1010070B50546E5
:10D560002846FFF7F1FE0446002C02D100BF00BFA1
:10D570000446204670BD70B505460E463146284625
:10D58000FFF75CFF0446002C02D100BF00BF044639
:10D59000204670BD70B505460E4631462846FFF759
:10D5A00071FF0446002C02D100BF00BF0446204694
:10D5B00070BD0000F8B505460F460120A84004469E
:10D5C00018480068FCF714F80646002E00D0F8BD95
:10D5D0001548006820421DD1284600F037FF00287A
:10D5E00005D01248006820431049086004E00F4845
:10D5F0000068A0430D4908600B48006820430A49B1
:10D60000086000220A48016806480068FBF7C4FF6A
:10D61000064604E004480068A0430349086000BFD0
:10D62000D5E70000180B0200502100204C210020FB
:10D630004821002010B5174800680821084226D16B
:10D6400000F0DCFA00280CD00020134908601148D3
:10D650000068012108430F490860002002F0DAFB4E
:10D6600017E000F09FFA002806D000200A49086061
:10D67000022002F0CFFB0CE008480068002803D02D
:10D68000032002F0C7FB04E002F098FB01E002F087
:10D69000A5FB10BD18210020282100202C210020EE
:10D6A00030B59DB005460C460020159000BF10A86F
:10D6B000007D01090901491C10A80175007DF021B8
:10D6C0008843103010A9087500BF10A8807D06217E
:10D6D0008843811C10A88175217941751C2116A8E9
:10D6E000FAF7B1FD10A8007E10218843103010A970
:10D6F00008760020179019901A9015A81B9000200A
:10D700001C9000BF012108A88177224968468187C3
:10D7100000BF00200E9008A8807E06218843811C4F
:10D7200008A8817661790176A1794176807E082109
:10D730008843014608A88176807E102188430146EF
:10D7400008A88176807E41084900491C08A8817696
:10D75000142110A8FAF777FD202106A8FAF773FD27
:10D760000FA810900EA8119001AA06A9284600F053
:10D7700013F8014610A80181002141811421818103
:10D7800001A81490A888AB1D10AA16A9A2DF1DB08D
:10D7900030BD00001C2A0000F7B50C46002601270A
:10D7A0002078002801D0012006436078002801D0AD
:10D7B00002200643207800280AD001200643207B5F
:10D7C0000006050E2D0621690902090A0D4307E02E
:10D7D00020790006050E2D06A1680902090A0D43ED
:10D7E0000299C8190570FF2109022940090A4170F0
:10D7F000FF2109042940090C8170290EC170042100
:10D80000C819C7B26078002809D0022006430298E0
:10D81000C11920461430FCF7F3FCC019C7B2A07838
:10D82000002807D004200643227F3846791CCFB257
:10D8300002990A54029806703846FEBD70B5044637
:10D840000D46164629480078002806D12070274842
:10D850000078401C2549087006E00120207023480C
:10D860000078401E2149087001206070A070204996
:10D87000204801F0D2FE204908600120C0432071F9
:10D880002846FAF76FFEA0600120C04320731A49B2
:10D890000968CA0088180521FAF792FC1921C90104
:10D8A000411821613046FAF75DFE206108221349D4
:10D8B00020461430FAF7AEFC042020770F48807918
:10D8C0001B300E498871084680793B280DDD0846DB
:10D8D00080793C38887108464079401C4871084678
:10D8E00040793B2801DD0020487170BD1A200020DE
:10D8F0004424002038200020442000201220002052
:10D9000070B590B005460C461C2109A8FAF79BFC9F
:10D9100008A9087902218843801C08A90871002001
:10D920000A900C900D900E900F9000BF0121684658
:10D9300081731E49818100BF002002906846807A71
:10D9400006218843811C68468172E1790172217A3F
:10D950004172807A08218843014668468172807A44
:10D9600010218843014668468172807A4108490047
:10D9700068468172142104A8FAF765FCA67A01961C
:10D9800003A8049002A805900121684601830021A4
:10D9900041830121818301A80890A8882B460E337A
:10D9A00004AA09A9A2DF10B070BD00001D2A000062
:10D9B000F8B529480078002800D1F8BD274800684C
:10D9C000002801D1012000E000200546244800681D
:10D9D000002801D1012000E00020064600BF002DF4
:10D9E00014D1684651DF0446052C01D101250CE015
:10D9F000002C06D000BF002211462046FBF7F6FCA3
:10DA000003E0164900980968884700BF002E1AD124
:10DA100014480088009069461348006861DF044696
:10DA2000052C01D101260DE0002C06D000BF0022FC
:10DA300011462046FBF7DAFC04E00B480068084971
:10DA40000968884700BF002D02D0002E00D000E0FA
:10DA5000C5E700BF00BFB0E7882100209C2100205F
:10DA600098210020942100209021002010B50B491E
:10DA70000A6800200EE001218140114209D041B224
:10DA8000CC06E40E0123A340044C8034236000BF85
:10DA900000BF401C2028EED310BD000000E100E0D4
:10DAA000FEB50446002000900190022168460180E6
:10DAB0000021418002A80190A18A20886A46A5DF42
:10DAC0000546002D07D0E06A002802D02846E16A0A
:10DAD00088470020FEBD02AE304602F08AFE0746AF
