:020000040001F9
:10C000002838002035C101004FC1010051C1010095
:10C010000000000000000000000000000000000020
:10C0200000000000000000000000000053C10100FB
:10C03000000000000000000055C1010057C10100D0
:10C0400059C1010059C10100B5CC010059C101001D
:10C0500059C1010000000000ADC7010059C1010035
:10C0600059C1010059C1010081CC010059C1010031
:10C0700059C1010059C1010059C1010059C1010054
:10C0800059C10100E1CB010059C1010059C10100B2
:10C0900001CC010059C1010009CC010059C10100C6
:10C0A00059C1010059C1010000000000000000005A
:10C0B0000000000000000000000000000000000080
:10C0C0000348854600F032FB0048004715FC01009C
:10C0D00028380020401E00BF00BF00BF00BF00BFC7
:10C0E00000BF00BF00BF00BF00BF00BF00BFF1D155
:10C0F00070470000401E00BF00BF00BF00BF00BF70
:10C1000000BF00BF00BF00BF00BF00BF00BFF1D134
:10C1100070470000401E00BF00BF00BF00BF00BF4F
:10C1200000BF00BF00BF00BF00BF00BF00BFF1D114
:10C13000704700000321094802680A43026008486A
:10C1400002680A4302600748804707480047FEE745
:10C15000FEE7FEE7FEE7FEE7FEE7000024050040FD
:10C16000540500402DCC0100C1C0010030B50B4684
:10C17000014600202022012409E00D46D5409D42C1
:10C1800005D31D469540491B254695404019154647
:10C19000521E002DF1DC30BD70B50024254600286C
:10C1A00001DA01244042002901DA01254942FFF762
:10C1B000DDFFAC4200D04042002C00D0494270BDAF
:10C1C00003460B439B0703D009E008C9121F08C0B0
:10C1D000042AFAD203E00B78491C0370401C521E5B
:10C1E000F9D27047D2B201E00270401C491EFBD266
:10C1F00070470022F6E710B513460A460446194672
:10C20000FFF7F0FF204610BD421C0178401C0029BA
:10C21000FBD1801A704730B504460020034600E089
:10C220005B1C934203D2E05CCD5C401BF8D030BD78
:10C23000024670B54A40D30FDB0740002DD04A00BC
:10C240002AD0010E140E091900021202400A520AE5
:10C250008418E50104465443000A120A2E04504390
:10C26000A4194219200CC543AA18120C01257F39C4
:10C27000521CAD0352191204240400D0521C104366
:10C2800001D44000491EC2B20C06C0092018401C4F
:10C290004008802A02D003E0002070BD4008400022
:10C2A000002900DA0020184370BD0000F0B50746F1
:10C2B0000846584087B0C00F049048000E46590009
:10C2C00040084908BC1A884105D2384631461E4606
:10C2D00017460B46024658004008104303D1384623
:10C2E000314607B0F0BD300D039040055900400DB8
:10C2F000490D0590401A029040286DDA180301217B
:10C30000000B09050843019004980092002805D00D
:10C3100001995242002088410092019002984021E8
:10C320000A1A0199009800F03BF905460C46684648
:10C3300007C800F045F9C0197141039A0E0D00239A
:10C34000D71756401A467A40164340D0049A002A1E
:10C3500029D0029A012A039A11DC1205C01A9141D0
:10C3600001263605001C7141D20F059ED2070093AD
:10C37000019202962A46234600F084F9B1E7160599
:10C38000224A0F46B218C01AB74101210905001C04
:10C390004F4100187F41114618187941E20F1043B0
:10C3A0006D19644113E0E2076D0815436408C20784
:10C3B0001443039A01261205C01A91413605001C48
:10C3C0007141CE07400830434908C01851412A4600
:10C3D000234600F04AF984E7049801224000C1177F
:10C3E000121A00238B4104983146C417381AA14110
:10C3F000EFE730B40124E407634030BC56E730B4C3
:10C400000124E407614030BC50E700000000E0FF79
:10C41000F0B51FB488B00B990998002448400999D9
:10C42000C00F490049080991C0070B9900904900C5
:10C4300049080B9109990898A646084303D00B991F
:10C440000A98084303D1002001460DB0F0BD0998B9
:10C4500001244000420D4800410D099824050003C5
:10C46000000B204309900B980003000B20430B9016
:10C4700050181A494018002201901446104601E055
:10C48000032801DA034600E003239C46C11A0AAEE2
:10C490000AE05F0008ADED5B4F00F75B7D430027CE
:10C4A000AA187C415B1E491C6145F2DD410004ABCA
:10C4B0005A522104120C0A43240C401C0828DFDBCA
:10C4C000019802900099704601910090059B049A92
:10C4D0000799069800F0D6F8B7E700000DFCFFFFBB
:10C4E00070B54B005B0803430BD04B005C0D00267E
:10C4F00033466542B341D417AD1AA34102DB002095
:10C50000014670BD12053018514170BDC217C10FF0
:10C51000504010B54018CA079623002100F06BF870
:10C5200010BD00000EB505490291002100910A4698
:10C530000B46019100F0A6F803B000BD33040000E3
:10C54000410040020122400AD205090E80187F29CD
:10C5500001DA00207047962903DC9622511AC84060
:10C560007047963988407047CB0FDB07490010B5FC
:10C57000490802460A4307D00A0D07240903E401CB
:10C58000090B121B002A01DC002010BDC900440F5A
:10C590000C43C100E018D205801800F024F810BD4B
:10C5A00010B5202A04DB0146203A9140002010BD3E
:10C5B000914020239C1A0346E3401943904010BD4C
:10C5C00010B5202A06DBCB170846203A1041C117C8
:10C5D0000B4306E00B461341D0402024A21A9140A1
:10C5E0000843194610BD002904DA401C490001D156
:10C5F00040084000704770B40024050C05D1102499
:10C60000000402D1002922D01124050E01D10834E2
:10C610000002050F01D1241D0001850F01D1A41CCA
:10C620008000002801DB641C4000002908D0202580
:10C630002E1B0D46F540A14000D00121294308439F
:10C640001B1B0106DB1D000A002B02DA002070BC58
:10C650007047DB05181880180029F8DA401C4900DB
:10C66000F5D170BC40084000704710B5002B08DAC7
:10C670000024401C614192185B411A4301D14008DB
:10C68000400010BDF0B51FB482B005460C0003D0C9
:10C69000084600F08FFB02E000F08CFB20300246E1
:10C6A000009021462846FFF77BFF049B059A04462D
:10C6B0000F4618431143084303D12046394607B0BB
:10C6C000F0BD1846104317D0009840210A1A1846AA
:10C6D000059900F03DF805460E46009A0599049824
:10C6E000FFF75EFF084301D0012000E00020C117E2
:10C6F00005430E432C43374300990E986305401AB7
:10C700007905E40A0A3000220C43FD0A002802DA07
:10C7100000200146D3E70105101969410C9C0D9DCD
:10C7200000196941FFF7A1FFC9E70000064C012588
:10C73000064E05E02046E36807C82B4398471034AF
:10C74000B442F7D3FFF7C0FC2C1202004C120200D7
:10C7500010B5202A04DB0846203AD040002110BD45
:10C760000B46D340D0402024A21A914008431946DA
:10C7700010BD30B58C180278401C13071B0F01D177
:10C780000378401C120906D10278401C03E00578AA
:10C79000401C0D70491C5B1EF9D101E00B70491C57
:10C7A000521EFBD1A142E6D3002030BDF8B50025D2
:10C7B000FF24013401262F460095204603F0F8FCA3
:10C7C000002808D034484068304204D03348002163
:10C7D000201835430160241D76007F1CA4B2042F6D
:10C7E000EBD3FF207D3003F0E3FC002807D02C487A
:10C7F00000210160400705432A48006900902A4E45
:10C80000280713D001270024384628420AD0274899
:10C81000A200111808690969C004C00E8903B25842
:10C82000890F90477F00641C042CEDD3002D30DA73
:10C8300000241D4E0021301940304156491C25D09E
:10C840000778BD06AD0E284601F022FE800036585E
:10C85000002E1BD0BF090121A940154AA80080184D
:10C860000068009A8003800F114202D0022802D093
:10C870000CE003280AD1032F05D102280AD0022197
:10C88000284603F075FC39462846B047641C042C42
:10C89000CFD3F8BD0321F3E7006300400060004000
:10C8A0007C61004000050050D02E00200065004053
:10C8B0000007005010B500F001F9FE2000F038F933
:10C8C00000F01CF90F2003F00DFB10BD70B50546FC
:10C8D00000F0F4F8802000F02BF900F055F8254C1A
:10C8E000002826D0284600F023F900F04DF8002853
:10C8F0001FD000F0E3F8812000F01AF900F044F8AE
:10C90000002816D0322003F0EDFA00F08BF8060272
:10C91000012000F0B9F800F085F83043044600200B
:10C9200000F0B2F800F0EAF8E32D06D0E52D17D0BC
:10C93000FEE700F0E3F8204670BDA0088000FFF796
:10C94000F1FD0D4A0D4BFFF763FD0F22D243FFF7B8
:10C95000C7FD0B4A0B4BFFF7A9FCFFF705FE70BDA7
:10C96000200900017D214843000C801FFFF7CEFD08
:10C9700070BD000000004843D7A3703D0AF7654032
:10C98000CDCCCCCCCC6C47C010B5FF24012003F03B
:10C9900007FC0320FFF79EFB002003F001FC0520AD
:10C9A000FFF798FB002000F01FF80E4803E0641E1C
:10C9B0002406240E0ED001698907C90FF7D1002083
:10C9C00003F0E6FB012000F00FF80120FFF782FBE7
:10C9D000012010BD012000F007F800F08FF80020C2
:10C9E00010BD0000000500501CB5002806D0002036
:10C9F00003F0B4FB012003F0B1FB1CBD002003F0E9
:10CA0000ADFB00210120032300910A46019103F0B0
:10CA100081FB1CBD10B5002003F0BAFB012003F020
:10CA2000BFFB10BD70B500250120FFF7DDFFFFF74C
:10CA3000F1FF0020FFF7D8FF124E07240120FFF777
:10CA400049FB002003F0A4FB0520FFF743FB002077
:10CA500003F0A6FB0220FFF73DFB30698007C00F03
:10CA6000A0402843C5B20220FFF734FB641E64B225
:10CA7000002CE3DA002003F08BFB0220FFF72AFBF7
:10CA8000284670BD0005005010B5002803D00120D5
:10CA900003F086FB02E0012003F07AFB0320FFF79E
:10CAA00019FB002003F07CFB0520FFF713FB00209F
:10CAB00003F06EFB0220FFF70DFB10BD10B5012047
:10CAC000FFF792FF002003F063FB012003F068FBF7
:10CAD0000120FFF7FFFA002003F062FB0520FFF7BB
:10CAE000F9FA012003F054FB0420FFF7F3FA0020C9
:10CAF00003F04EFB0220FFF7EDFA10BD10B5012048
:10CB0000FFF772FF002003F043FB012003F040FB1E
:10CB10000120FFF7DFFA002003F042FB0520FFF7BA
:10CB2000D9FA012003F03CFB0420FFF7D3FA10BD33
:10CB300070B505460120FFF757FF0724002003F0DA
:10CB400027FB2846E040C00703D0012003F028FB64
:10CB500002E0012003F01CFB0220FFF7BBFA0020DB
:10CB600003F01EFB0520FFF7B5FA002003F010FBD1
:10CB7000641E64B2002CE1DA0220FFF7ABFA70BD4C
:10CB8000054801214268C9041203D20F01D0C160D7
:10CB90007047816070470000000500508307FF2246
:10CBA000DB0E9A408907090E994000280BDA00072E
:10CBB000000F0838830808489B001B18D869904369
:10CBC0000843D8617047830804489B001B18186805
:10CBD000904308431860704700ED00E000E400E077
:10CBE00010B506490020086048608860C8600349A5
:10CBF00040390860486004F067F910BD40110140F9
:10CC000010B504F0F7F810BD10B5074840680028CB
:10CC100007D08047002803D00022114600F07EFA9A
:10CC200010BD02F05FFE10BD4429002010B502F0D7
:10CC3000A7FE002805D00E490C484860C8130D49CE
:10CC400088610D48018CC9B201290ED1818C090778
:10CC50000BD1018D0906090F042906D1808D00062C
:10CC6000000F02D105490120886010BDDFFF07C019
:10CC700000050040006C0040C00F00F000060040BE
:10CC800010B50948816801290CD108494968490350
:10CC900008D500218160FFF773FF04F099F804497B
:10CCA0000120C86010BD000040A1004000A300406A
:10CCB00000A00040F0B53C4D012185B04902284656
:10CCC00003F08BFA01270026384C002823D0FF21DF
:10CCD0002531284603F07CFA00281CD0FF2125319D
:10CCE00028466E508122324992008A60617D002977
:10CCF00000D14760022269460A7003F063FA03908C
:10CD0000E07C69460872E0680190E67462686846F3
:10CD1000216890471DE00421284603F05EFA0028B0
:10CD200017D0FF210931284603F052FA002810D00D
:10CD300003F042FDE07C217D88420AD1607D00281D
:10CD400000D16F6081211A4889008160207D03F045
:10CD500049FDFF211D31284603F03AFA00280DD085
:10CD6000A07C218A884202D904F0F0F806E0FF2175
:10CD70001D316E50002801D004F0FEF8FF2145312E
:10CD8000284603F025FA00280CD0FF2045302E500D
:10CD9000607D002800D02F60E07C002802D0207D3C
:10CDA00003F020FD05B0F0BD00200040182F00204A
:10CDB000002300402021020C01D010211046020A5D
:10CDC00001D008391046020901D0091F1046820817
:10CDD00001D0891E1046420801D0881E7047081AEB
:10CDE000704730B47446641E2578641CAB4200D290
:10CDF0001D46635D5B00E31830BC184702E008C8BD
:10CE0000121F08C1002AFAD170477047002001E0C4
:10CE100001C1121F002AFBD17047F7B584B000256D
:10CE2000168807461580406B1446002813D00378F7
:10CE30000598032E51D30221017021881122491C2B
:10CE400089B2218042542188491C89B221804354EF
:10CE50002088401C2080386B00281DD00546208883
:10CE6000059902461232B24237D811220A5420885C
:10CE70001022401C80B220800A542088401C208050
:10CE80000F202A5C2388401ECA54228840B2521CBC
:10CE900022800028F5DA0025384620300290807B79
:10CEA000002806D033462246059902F0B5FD05005C
:10CEB00014D10298407B002806D0324621460598BE
:10CEC00000F018FE050009D1B878002823D0059895
:10CED00086462088001DB04202D90C2007B0F0BD64
:10CEE000684679DF0028F9D1218803207246505422
:10CEF00020881921401C80B220801154208871465E
:10CF0000401C80B2208041186846008804F044F834
:10CF1000218840182080F878002817D02188032322
:10CF20000A46FB56C91C0598B142D6D80221815445
:10CF300021880122491C89B2218042542188491C40
:10CF400089B2218043542088401C208078680028C2
:10CF500017D021880023C3560A46C91C0598B14240
:10CF6000BBD80221815421880A22491C89B2218020
:10CF700042542188491C89B2218043542088401C96
:10CF80002080388900280AD000943846019606226D
:10CF900002210830059B04F07EF805009ED1388AF6
:10CFA00000280AD000943846019607220321103049
:10CFB000059B04F070F8050090D1388B00280AD04A
:10CFC000009438460196152214211830059B04F070
:10CFD00062F8050082D1386A002806D0334622461E
:10CFE000059901F0FDFB0500D8D1786A002806D02C
:10CFF00033462246059902F0EBFE0500CED1029899
:10D00000007B002807D0334622463846059903F0B6
:10D0100067FC0500C2D13878002807D03346224685
:10D020003846059902F008FF0500B7D1284655E7B4
:10D0300010B501220221002001F056F8002801D08D
:10D04000072812D107220221012001F04DF8002803
:10D0500001D0072809D100210A22084601F044F82E
:10D06000002801D0072800D1002010BD04484268E4
:10D07000012109050B46934383600A40C260704753
:10D080000005005070B50024064D06E06968E00018
:10D09000085C012102F064FF641C28788442F5D307
:10D0A000002070BD10290020F8B515460C46064634
:10D0B000052A01D20720F8BD03F024F8002803D187
:10D0C00002F0F6FF0028F6D1104900204E600C70E7
:10D0D000C8608D6008610E4D0DE0E0006968801940
:10D0E000009181786A46517000780A4A694602F0D8
:10D0F00087FF0028DFD12046641EE4B20028ECD16F
:10D10000054A0021024800F041F8F8BD102900202E
:10D1100024120200B5F50100ADE90100BFF34F8F05
:10D1200003490248C860BFF34F8FFEE70400FA05C9
:10D1300000ED00E0014B1B6818470000AC2E0020FA
:10D1400038B50C46A2680C235A43064B09789D5803
:10D15000054A126A00920246204608302369A84711
:10D1600038BD0000FC2F0020EC28002010B5064937
:10D1700014230A785A435118091DFFF7E1FF0420D0
:10D1800003F09EFC10BD0000302F0020094B9B686F
:10D19000002B07D0002A07D0002805D00068037CA8
:10D1A000002B03D00820704707207047417442616C
:10D1B0000020704724290020FFB59007002581B08A
:10D1C00014460E46002832D11B4F002C31D003F0FC
:10D1D000D1FA04987861032038702246BC60183474
:10D1E0000020334618214B43C10089180D704D7043
:10D1F0008E704C601C19401C0328F5DBFD607D70AF
:10D2000001240E48BD702405046003211420FFF79B
:10D21000C5FC0B4804600B4C0198A0600321112051
:10D22000FFF7BCFC60683861002005B0F0BD072046
:10D23000FBE7BD60FBE700002429002080E200E05E
:10D2400000E100E000150140FEB50D461B49174600
:10D250008968044600292AD0002C28D0052D01D247
:10D260000720FEBD6069002821D0607C012820D005
:10D27000002603F0D3FEC0001049019089684018D1
:10D28000694603F0F5FE002815D0012101700C4914
:10D29000446049680830E2C008490198896841182B
:10D2A00068460078487003F0E7FD0020FEBD0820C6
:10D2B000FEBD2E46DDE70420FEBD0000242900202F
:10D2C00000150140F8B5134D0446A96800291CD08B
:10D2D000002C1AD06069002817D00026267403F0AD
:10D2E0009DFEC700A8686946381803F0C1FE0028F3
:10D2F0000DD0022101704460A86839186846007892
:10D30000487003F0B9FD3046F8BD0820F8BD042090
:10D31000F8BD000024290020F0B50546007D00245A
:10D3200093B00E4600280DD001200146103168460A
:10D3300003940173717B4173817BF9200140891C47
:10D34000684681731C2104A8FEF753FF6946087CD8
:10D3500002210843694608742A7DEF21002A02D081
:10D360001022104300E008406A46107405940794A8
:10D370000894287D002800D003A8099001270A946A
:10D38000104697712E4A82800094B27B0270F27B25
:10D3900042708078F9221040801CE722104041083A
:10D3A000490068468170317B017214210BA8FEF799
:10D3B00020FF01A80B9068460C908786C4860787DB
:10D3C00002A80F90A888AB1D0BAA04A9A2DF002811
:10D3D00033D1B06800282ED0684687711949818002
:10D3E0000094317C017000200146684641708078CD
:10D3F000F9210840801CE72108404108490068469F
:10D40000817011A8B16800F012FD064614210BA826
:10D41000FEF7EFFE01A80B9068460C908686C48646
:10D42000068711A80F902A46E8880E320BA9A3DFC1
:10D43000002802D100E0EC81002013B0F0BD000014
:10D44000192A00000829000010B50C490C4803F007
:10D4500027FAC1B20948343800F04CFA00280BD042
:10D46000082809D00749884206D00749884203D0D6
:10D4700000221146FFF752FE10BD0000DC2B0020F9
:10D48000142800200430000001340000F0B50C46E0
:10D4900093B01F216A46118007260027918000283B
:10D4A00009D0C17849070DD502A9FFF7B6FC0028BD
:10D4B00009D102AD01E000251780002C0ED0E078E4
:10D4C000002802D0304613B0F0BD01AA0AA92046B8
:10D4D000FFF7A3FC0028F6D10AAA02E06846002262
:10D4E000878068468088C3B268460088C1B22846F3
:10D4F00072DFE8E770B50D4604991646040042D085
:10D50000002E40D0424800224271C36001612422B3
:10D5100031464048FEF754FE00F0D4F83D4934311E
:10D520000846103801602031816038215C38FEF7F0
:10D5300060FE3848217838380170A1788170E17830
:10D54000C170617841706269216942610161E2687C
:10D55000A168C26081600146E369A269CB618A610A
:10D56000616A002919D00146AC310246B8324162E5
:10D570008A60636A1B880B80616A436A8988998024
:10D580000021436A06E00E2070BD666AB668765CCC
:10D590005654491C9E888E42F7D8A16A00291CD097
:10D5A0001C4AAC3211460C398A608162A36A9B889E
:10D5B0008B80A16A836A098819800021836A04E04C
:10D5C000A66AB668765C5654491C9E888E42F7D887
:10D5D0002C210A5D0F4918390A73216A002909D0E4
:10D5E0000B4914310162226A52884A80216A026A18
:10D5F000098811806168002904D00549891D4160AE
:10D6000061684160034829463838FFF73FFF70BD25
:10D6100054280020A02C002010B502881C4C102A91
:10D6200017D00021112A1AD0192A11D18079002887
:10D630000ED1607901281ED0022822D0032822D0E2
:10D64000042805D12171E2680846002A00D09047DD
:10D6500010BD017D0129FBD18088208110BD617042
:10D66000808821898842F9D1012005E021690029BB
:10D67000F4D0884710BD022000F04CF80028F5D106
:10D6800010BD0320F8E7032020710420F4E7000018
:10D690005428002010B5022801D003280ED1084CD0
:10D6A000207800280AD000202070607900F032F83D
:10D6B000002803D02169002900D0884710BD000050
:10D6C0005428002010B507210148FEF792FD10BD37
:10D6D0006C28002010B50D480078012814D10C4C9E
:10D6E0006078002810D16079002802D074DF00280B
:10D6F0000BD101206070607900F00CF8002803D095
:10D700002169002900D08847002010BDA02C0020EE
:10D7100054280020F0B5754C87B06071002606A82B
:10D72000069602F0F1FD0127082806D000286FD1E7
:10D730000698002802D02770D4E00696FFF7C2FFB3
:10D740006B4D6878002802D06079012805D0A87850
:10D7500000280AD06079022807D1E168002903D0A7
:10D76000E7700820884700E0E6706079012808D15A
:10D770006878002809D05D48193002F05BFD002868
:10D7800003D06079022802D00CE002206071A878F2
:10D79000002805D05548193002F04CFD002801D171
:10D7A00003206071287B002804D16079032801D10F
:10D7B00004206071287E002804D16079042801D1FA
:10D7C00066712671E16800290AD06079032801D0CA
:10D7D000042805D12878002802D06078002818D0C5
:10D7E000A67018216846FEF704FD6846067001968B
:10D7F00006720396607901280FD0022816D03C4E9D
:10D80000243637465C3F03281CD004285ED13BE019
:10D8100069E0A77007208847E3E734481830019093
:10D820006846077046820682277152E02F481830FA
:10D8300001906846077029894182A98801820220E7
:10D84000207146E0A88A69464882288A08822848CA
:10D85000243003F08FFC002805D02878002802D05F
:10D860006078002801D003202FE00220694608726A
:10D8700004200396F8701E4800213838FFF706FE92
:10D88000002830D1052020E0A88B69460882288C2A
:10D8900048821748243003F06DFC002805D0287812
:10D8A000002802D06078002801D004200DE002207A
:10D8B0006946087204200396F8700D480021383834
:10D8C000FFF7E4FD00280ED10620207160790028C2
:10D8D00003D0684673DF002805D1E168002901D034
:10D8E00020798847002007B0F0BD000054280020B0
:10D8F000A02C002073B586B004002FD06A46217C8E
:10D90000127F0020914227D000250126684600950D
:10D910000680458007A80190E188608A6A46A4DFF6
:10D92000002819D16846007F2074608A0D4988421A
:10D9300016D0207D002813D00295039504950595F7
:10D94000E18868460181867241888181049001984E
:10D950000590608A02A9A6DF08B070BD0E20FBE723
:10D960000820F9E7FFFF000038B50D4604001AD083
:10D97000002D18D0286820600020C04360822879DC
:10D980002075FF20207401216846817007490180BD
:10D99000221D69460120A0DF002803D12946204628
:10D9A000FFF7BAFC38BD0E2038BD00000F1800008C
:10D9B00038B5002824D0002922D00A88102A1AD08D
:10D9C000112A1AD0502A1BD1027D002A18D0891D95
:10D9D0000A8843899A4213D10A8B022A10D102681D
:10D9E000002A0DD0CB7E8C7E19022143C907C90FB6
:10D9F00007D0002106E0898801E00021C943418267
:10DA000038BD01216B4619706946904738BD00004A
:10DA100070B5054601461C220E48FEF7D1FB0E4CA0
:10DA2000002626702968002906D00822201DFEF74E
:10DA3000C7FB201D7ADF02E00748001D7BDF0028BE
:10DA400007D1401E60806670044A00210448FFF739
:10DA50009DFB70BD8C2D002074280020B90F0200A2
:10DA6000C8110200F8B5214C028800271E4DE68936
:10DA7000102A15D01E49112A21D0122A2DD0502A41
:10DA80001CD1801D0288B24218D1028B022A15D106
:10DA9000C27E837E10021843C007C00F0CD112E073
:10DAA0008188698001461048082216310C30FEF743
:10DAB00087FB6F70002E01D100F0DCFEF8BD002066
:10DAC000C04368806F700868FFF7FCFB0028F5D042
:10DAD000A1690029F2D08847F8BD811D02480822BB
:10DAE0000C30FEF76DFBE7E7742800208C2D00203A
:10DAF000C81102007CB5054608880C4609309042E2
:10DB000001D90C207CBD684671DF0028FAD121883C
:10DB10000820685420881B21401C80B22080295492
:10DB2000208800A9401C80B22080401906220131C3
:10DB3000FEF746FB20886946801D80B22080097868
:10DB4000002900D0012129542088401C2080002079
:10DB50007CBD00007FB504460121684681714A49B9
:10DB600081804A4A01A90120A0DF00287ED12288B5
:10DB700025463C35002A09D044482B46801C00909D
:10DB80004348616800F08CFC00287BD12289002A80
:10DB90000AD03E482B460A3000903D48E168401FBD
:10DBA00000F07EFC00286DD1228A002A0AD0374876
:10DBB0002B461230009036486169001F00F070FC5F
:10DBC00000285FD1228B002A0AD030482B461A3019
:10DBD00000902F48E169801E00F062FC002851D1BE
:10DBE000228C002A0AD029482B462230009028484F
:10DBF000616AC01E00F054FC002843D1228D002A27
:10DC00000AD022482B462A3000902148E16A401E63
:10DC100000F046FC002835D1216B00290ED002A867
:10DC200003F09CF819482B4632300090184808221F
:10DC300002A9801F00F034FC002823D1606B00286B
:10DC40000BD012492B463A310091027901681048F5
:10DC5000401C00F025FC002814D1A16B002910D035
:10DC600002A802F031FB0948423000E00AE00090CF
:10DC700007482B46072202A9273000F011FC002894
:10DC800000D1002004B070BD0A18000088280020D0
:10DC9000292A000070B504460146154800F096F8A0
:10DCA000134821461838FFF783FE2046FFF7DAFEB7
:10DCB000204600F0B9FF204600F042F920880D4DC3
:10DCC000102802D011280ED10AE0072000F030FA07
:10DCD000002803D000221146FFF720FAA08801E0B7
:10DCE0000020C043A8802046FFF796FC70BD0000CE
:10DCF000C02B00200028002038B5044608682060AA
:10DD00000020C043E082887A0D46207601216846D3
:10DD100081700C490180221D69460120A0DF002886
:10DD20000FD12946204601F0ABFC002809D1687AC2
:10DD3000002805D02946204601F090FD002800D19A
:10DD4000002038BD091800003EB50C460021022312
:10DD50006A4601919380D18002924189C08A01AACA
:10DD6000A5DF002804D1694609888907C90F2170F9
:10DD70003EBD000030B50446C08A134A8BB09042C5
:10DD80001FD006AA204601F0D3FC6946054608804C
:10DD900000200190029003900490E2888A80012282
:10DDA0008A71088106A803910490E08A01A9A6DF80
:10DDB000002804D169460988A94200D00C200BB084
:10DDC00030BD0820FBE70000FFFF000038B50A88DF
:10DDD000102A17D0112A17D0502A18D1891D0A8865
:10DDE00043899A4213D10A8B022A10D10268002A71
:10DDF0000DD0CB7E8C7E19022143C907C90F07D0F5
:10DE0000002106E0898801E00021C943C18238BDB4
:10DE100001216B4619706946904738BD70B50446BC
:10DE20000D460846FEF7F0F92080656070BD0A785F
:10DE30000270497841700220704700001CB5002331
:10DE400048221549082002F06FFE002803D0002266
:10DE50001146FFF763F900200090694601900870B1
:10DE6000684660DF002803D000221146FFF756F90C
:10DE70000A4802F04FFE002803D000221146FFF7A7
:10DE80004DF9074802F068FE002803D00022114631
:10DE9000FFF744F91CBD0000602B002095DC010059
:10DEA0004D0D02001CB5044681786A460C4802F00C
:10DEB0003FFA002812D160781C21484309491C23ED
:10DEC00040181A46694602F0EDFA06480649403005
:10DED000807A80000A582146684690471CBD0000A1
:10DEE000E42800206C2E0020DC1102007CB5134ECB
:10DEF00000250C463060002918D06946002000F04B
:10DF0000B5F8002819D101A9012000F0AFF80028C8
:10DF100013D1684601790020002901D0022004E0D5
:10DF200069460978002900D00B202070706800280D
:10DF300002D1FFF77DF8054628467CBD4828002021
:10DF400010B51C4C0188606810290DD011290AD128
:10DF5000401E606007D1FFF76BF8002803D02168EE
:10DF6000002900D0884710BD00281ED100210122C1
:10DF7000084600F0B9F8002801D0072811D107227F
:10DF80000221012000F0B0F8002801D0072808D1B4
:10DF900004220221002000F0A7F8002805D007285D
:10DFA00003D02168002900D088476068401C606069
:10DFB00010BD00004828002010B5032000F012FA20
:10DFC000002801D0062800D1002010BDF8B5074672
:10DFD0000024234802E0641C042C1AD2A2008258B8
:10DFE000BA42F8D1042C14D21D481E4E0C38002918
:10DFF00029D001290ED002290BD1600020188019E8
:10E000004578002D05D018480169002901D028461F
:10E010008847F8BD61006118755C8E197178002918
:10E020000CD011490A224968806851430E4A521C9B
:10E03000FFF70AF9002801D10B4847700A48B17868
:10E0400014300155DDE78068FFF73CF906486100B0
:10E05000611814308919005D8D78A842D1D0F8BDBF
:10E06000981102003C2C00203028002004280CD2FB
:10E07000074A1269074B80001B5C012098409043BF
:10E0800000D001200870002070470020FAE700004F
:10E090000005005098110200014610B510480429EF
:10E0A00080880ED0072916D00A2907D00D2904D15F
:10E0B0000C49884201D002F08BFE10BD02F0E6FC54
:10E0C00010BD132176DF08E00028F9D000221146A8
:10E0D000FFF724F810BDFFF7FDFA0828F4D110BDB2
:10E0E00000280020FFFF000070B50023042811D293
:10E0F000440004190D4D012A02D101290DD000223E
:10E1000046008019094E801900290CD0012906D03B
:10E11000022906D00723184670BD0D30C2B22A5519
:10E12000F9E74270F7E78270F5E700003C2C002029
:10E1300010B5054A0146127A0020D20702D00846DF
:10E1400000F054F810BD00003028002070B50E46D5
:10E15000204905464E608D6000200A61A9071ED542
:10E160000024012211462046FFF7BEFF641C042C48
:10E1700002D20028F5D012E0002810D17208042144
:10E180001548FEF791FF002809D1FEF77BFF002814
:10E1900005D11148114A00211438FEF7F7FFE907AD
:10E1A00006D00F220E499204CA6000238B608A6158
:10E1B00000280DD108480B4A00211C38FEF7E6FF65
:10E1C000002805D10448084A01211838FEF7DEFF6F
:10E1D00070BD000030280020A811020021E40100D9
:10E1E000000500506DFA01006DD00100FEB57A4DBA
:10E1F0000722EB68D2049A4302936B6800939C0059
:10E2000006461B1900200121019389040746734C1F
:10E210003300FEF7E6FD180D1515374755677C8866
:10E220007F8891DE9E9E9E9E9EC8CED1D8DEDE1453
:10E230000F21029A89049143A160E7602F70FEBD0F
:10E24000A260E76060680F2292045040400309D545
:10E25000A160E760022E02D1E120C0000AE07D202B
:10E26000400107E0E160A760022E01D1C82001E073
:10E27000FF2091302E706421FDF778FF0099414313
:10E2800000223FE0A260E76060680F2292045040E5
:10E29000400304D5A160E76019204001EAE7E1608E
:10E2A000A760E3E7A260E76060680F229204504035
:10E2B000400302D5A160E760D1E7E160A760D7E73E
:10E2C000A260E76060680F2292045040400302D5CC
:10E2D000A160E76001E0E160A7602E700098410056
:10E2E00000220FE0A260E76060680F2292045040B5
:10E2F000400302D5A160E76001E0E160A7602E70F5
:10E300000099002236480068FEF79EFFFEBDA2601D
:10E31000E7601BE061680120C00402468A43A260F6
:10E320000140E16010E060680121C9040A468243AF
:10E33000A2600840E060E3E760680121C9040A4682
:10E340008243A2600840E0600199C9E7E160A760EC
:10E350002DE023484068FEF7B5FF11218A1B01D04C
:10E36000002807D00F22E96892041140A160E760FD
:10E37000EF60FEBD01210905E960012A0CD91046B4
:10E38000C82148436421FDF7F1FE6968002241433A
:10E3900013484068FEF758FF0F22E96892041140C5
:10E3A000E160A760FEBD0F218904A160E7602E70C7
:10E3B000FEBD0722D204AAE70D218904A160E7600F
:10E3C0000121C904C2E703210905A160E7608910A2
:10E3D000BCE70F218904B9E7302800200005005070
:10E3E0008C110200F0B500210B4C0C4D03273F04AB
:10E3F0008A00A25892005619326801238B400340CC
:10E4000000D00323BA431B0413433360491C04297F
:10E41000EED30020F0BD000098110200000700506C
:10E4200010B500780221FFF7D1FD10BD0022D243C4
:10E43000830004490428CA5002D308182030027708
:10E4400070470000D02E0020F0B50025ED43002AD3
:10E4500002D00023042601E0042308260B4C04E02C
:10E460009F00E7597F1C04D05B1CB342F8D32846B9
:10E47000F0BD26185DB2203635709E00A151002AED
:10E48000F5D1E11820310877F1E70000D02E002007
:10E49000024909182020085670470000D02E00209D
:10E4A000FFB58FB01E4615460F0004D1002211465D
:10E4B0001046FEF733FE002D04D10022114610460F
:10E4C000FEF72CFE1C216846FDF793FE6846017896
:10E4D00002200143684601700024019403940494CF
:10E4E0000594012108A80694817068460F9901845B
:10E4F00007943178017771784177807FF92108405E
:10E50000801CE721084041084900684681771421B2
:10E5100009A8FDF76EFE08A8099007A80A906846AA
:10E520008585C485058604480D9709AA6946008833
:10E53000189BA2DF13B0F0BD88280020F8B53B4837
:10E540001422017851430C18241DA0680C21484363
:10E550003649E768CC314018058941890091466801
:10E5600001F074FF01463846FDF700FE002940D057
:10E5700000200099A2884D436188AE198918CD19F1
:10E5800000222B4900280A6109D001F05FFF618851
:10E59000884230D0B54202D1A08800282BD0A06894
:10E5A000022828D001F052FF0146A088C019FDF7CB
:10E5B000DDFD1F4C8808E06001F048FF0146284659
:10E5C000FDF7D4FD00292CD0B5422AD0ADB2B6B2A9
:10E5D00001F03CFF01463046FDF7C8FD074601F05B
:10E5E00035FF01462846FDF7C1FD87420DD1701B5E
:10E5F00015E00120BDE701F029FF01463846FDF78F
:10E60000B5FD0B49486103200CE001F01FFF0646F1
:10E6100001F01CFF01462846FDF7A8FD701A80088E
:10E620002061022002F04CFAF8BD0000302F0020DB
:10E63000EC28002010B5074814220178514308182F
:10E640000079042802D000F059F810BD012002F032
:10E6500037FA10BD302F002010B50B481422017876
:10E6600051430818094AC18811620079012806D06F
:10E67000032801D0042801D1FFF760FF10BD01205D
:10E6800002F01EFA10BD0000302F0020EC28002000
:10E6900014225043054A002180180171C1800122D3
:10E6A0000161C2604161018170470000302F00208C
:10E6B000F8B5104C069E65780A2D19D027787D197B
:10E6C0000A2D00D30A3D14277D432D1928716A6154
:10E6D00003C92961E860EB802E816078401C60707E
:10E6E00005480078002801D1FFF7B6FF0020F8BDEB
:10E6F0000420F8BD302F0020EC28002010B50D4C70
:10E700001421207848430119091D0020FEF718FD47
:10E710002078FFF7BDFF6078401E60702078401CB5
:10E72000C0B220700A2801D100202070002002F021
:10E73000C7F910BD302F0020F8B52348C168002963
:10E740003ED00E6821494C680769C078E11B0D0274
:10E750002D0AED1C002814D101201D4A0004506030
:10E760001B4A403A50601B49400008601A49086043
:10E770001A49012008602F20FDF7CCFC1249012026
:10E78000C870B54200D23546E81900020F4B000AA6
:10E79000403318600D4A5168001B091B0902090A21
:10E7A0000002C91C000A814209D9506818602F2054
:10E7B000FDF7B0FC01200749400480390860F8BD2E
:10E7C00001F0D8FFF8BD0000242900200015014009
:10E7D0004013014080E200E000E100E00010014051
:10E7E000F8B50646108814468446801D0D469842AA
:10E7F00001D90C20F8BD32880720062AFAD3192740
:10E80000FF01184BBA4201D99A42F3D17188062907
:10E81000F0D3B94201D99942ECD19A4203D099423E
:10E8200001D08A42E6D80521604629542088122169
:10E83000401C80B2208029542088401C80B2208057
:10E840004119308802F0A8FB2188401880B220804E
:10E850004119708802F0A0FB218840182080002018
:10E86000F8BD0000FFFF000010B500221146FEF7C2
:10E8700055FC10BDF8B5164801F074F8144D00268B
:10E880000C3D144C002807D0616900291CD00120E0
:10E890006A461070684616E02878002805D061693D
:10E8A000002911D0684606700DE0687800280DD068
:10E8B000A168094800220068FEF7C6FC002803D0C2
:10E8C000A169002900D088472E70F8BD6168F0E783
:10E8D000802800208C2D0020C811020070B5094B43
:10E8E00004469E7A082000250E4207D0064884423E
:10E8F00002D01889A04202D10020156070BD052009
:10E9000070BD0000A02E0020FFFF00000C21484336
:10E91000064910B5012240188272911E0181FF2123
:10E92000C1720721FDF765FC10BD0000A02E00207C
:10E9300010B5134C207900071FD46069401C60613A
:10E94000E068002801D0042004E001F03DF8002830
:10E9500003D0022002F0F0F910BD2069002809D090
:10E960006068C10701D00320F4E70121084360601B
:10E970000020EFE7FFF75EFE10BD02F0D1F910BDF9
:10E98000EC28002010B5084841680A0708D48A0717
:10E9900002D5012211434160022002F0CDF910BDE1
:10E9A00002F0BEF910BD0000EC280020F8B50026EA
:10E9B0000124154D24E06968F00047183878214695
:10E9C00081402A690B46134218D08A432A6101F01C
:10E9D00065FB3A782146EB68914019400346934025
:10E9E00099420BD17978012901D0012100E0002161
:10E9F0007B684140002B01D010469847761CF6B248
:10EA000028788642D7D3F8BD10290020FEB50E46DF
:10EA1000044681786A46234801F08AFC002827D101
:10EA200060780C21204F4843C019807A400620D4DA
:10EA3000022E1ED0012E1ED01C4DA0781C21484352
:10EA400019490023F83941181C226846A8470028B4
:10EA500013D0022E0CD020780C21484312490C31DF
:10EA60004018807A124980000A582146684690472B
:10EA7000FEBD104DE1E7104DDFE7022EF8D06078C3
:10EA80000C214843C019817ABF22114081726078FD
:10EA90001C2148430449343941181C231A4668464E
:10EAA000A847D8E7E4280020A02E0020A50C0200EB
:10EAB000CC110200E50602000906020070B5054609
:10EAC000114A124800241C2363431B189B7EFF2B12
:10EAD00004D0641C072CF6D3104670BD0A78022AB5
:10EAE00009D01C2262431018FD22827610300722C2
:10EAF000FDF766FB04E01C2161430818FE218176C6
:10EB00002C700022E8E7000043800000A82D0020C0
:10EB1000F7B505250F4F06460024002E0AD01C200D
:10EB20006043C019103007223146FDF774FB0028FE
:10EB300007D00AE01C206043C019018B0298814273
:10EB400003D101980025046002E0641C072CE4D383
:10EB50002846FEBDA82D00207CB5054681B26A4638
:10EB6000074801F0E5FB040008D15421684601F094
:10EB700009FC040002D1284601F068FB20467CBD58
:10EB8000E428002008B5087815280FD16946084800
:10EB9000FFF7DAF8002803D000221146FEF7BEFA8C
:10EBA00068460078002801D002F012F9002008BD64
:10EBB000C02B00201FB56946087301F04DFC0028EA
:10EBC00003D000221146FEF7A9FA03A800F026FAA6
:10EBD000002803D000221146FEF7A0FA01A8052163
:10EBE0000130FDF706FB6946487901221043E12117
:10EBF00008400C30DF2108406946487107208871C1
:10EC00001020C871064800900A71064800F014FBF5
:10EC1000002803D000221146FEF780FA1FBD000035
:10EC200085EB010002280020F0B5054693B00020D6
:10EC30000290FF24ED480E94007800284BD0EC4F52
:10EC40003868002847D001A800F0DAF9002803D07E
:10EC500000221146FEF762FA281D05902A20694617
:10EC60000883FF20002688710E710396E04C2888E7
:10EC70000C3C10280ED0A88803AA0221FFF72EFE14
:10EC8000002807D103980C2141430919CA7A694623
:10EC90008A7148712888132217287CD00FDC10282D
:10ECA0001BD0112853D0132876D0142813D10398E1
:10ECB0000C2148430019C07AFF2871D08DE0CD495E
:10ECC00018286BD01C286AD0522804D1B87A80004A
:10ECD000095801A8884713B0F0BDC74F03AA012106
:10ECE0003846FFF7FBFD0028F5D103990C20484377
:10ECF00002220019827211236A4613745171A98885
:10ED000001810722A91DFDF75BFA687DC10707D0C5
:10ED10004108B6480830405CFF2808D00E9006E055
:10ED20003A460EA9A81DFFF7F3FE00280ED103995D
:10ED30000C22514309190E98C8728A7A08231A4383
:10ED40008A726946887101A8FFF7ACF839E1039827
:10ED50000C2148430119887AFD221040887201076E
:10ED600006D5C0090DD0002101A8FFF74FFE08E02D
:10ED700068468079FF2804D001F068FAFF206946D0
:10ED8000887103980C2250431021001981721220BF
:10ED90006946087415E17FE030E001E0D5E00EE15E
:10EDA000EA890EA90020FFF7B3FE00280ED10398D0
:10EDB0000C22504300190E99C172837A0822134322
:10EDC00083726846817101A8FFF76CF803980C21E3
:10EDD00048430019C07AFF2806D003981C214843F5
:10EDE000834940394018029003981C2148438349C5
:10EDF0004218A8880023029982DF6CE768460274F3
:10EE0000039B0C2058430119887A0422104388720E
:10EE1000C87AFF2830D0162069460874182043436A
:10EE200073480E21243818180830FDF7E2F90398CA
:10EE30000C2148430019817A4022114381720399C1
:10EE40000C2200204A430A901219D27A1C235A43FA
:10EE50006A4B0C90D2180B921C2251431A46C432B2
:10EE600089180791089009903A1DA88807AB0021DE
:10EE70007FDF0028C1D1A4E00EA8FFF71FFE002805
:10EE800001D00646DBE769460E98887103990C228B
:10EE900051430919C872D2E7787A40084000787265
:10EEA000039A0C209446424311198B7AFB200340AD
:10EEB0008B7214206F463874A879002804D0C87A61
:10EEC000FFF74AFEAE797CE0E879400779D5B8795A
:10EED000FF2876D008273B438B72EB7A9B0708D537
:10EEE0001C2503466B43454D5B199D7E6D086D00E7
:10EEF0009D76CB7AFF2B64D0A25C022A10D01C2214
:10EF000050433E4D072240191030FDF759F968462D
:10EF100080791C2148434019817EFD2211400EE07A
:10EF200061461C225143324A403A89184A8A1C21C0
:10EF30004843324940180283817E4908490081765E
:10EF4000012101A8FFF762FD3BE0A8790209012A2F
:10EF500023D10007000F01281FD103980C22424340
:10EF60001219927A120718D51821484320492439DA
:10EF7000401808300E21FDF73CF916206946087448
:10EF800003980C2148430119887A60221043887243
:10EF9000787A0221084378720FE003980C225043DC
:10EFA0000019827A80231A43827215206A461074EF
:10EFB000B87A8000095801A88847002601E0684611
:10EFC0000274324604A901A8FEF7B4F86846007C32
:10EFD000122800D07FE603980C2141430919897A51
:10EFE0000129F7D0FFF792FC75E60000D428002035
:10EFF000AC2E0020EC110200FFFF0000A82D002025
:10F00000002806D0FF21017041708170C17000207E
:10F0100070470148704700000E800000F0B585B0D1
:10F02000040036D0294800250560457285722846BF
:10F03000FFF76CFC254818212438FDF7DAF8002684
:10F04000FF27304601F002F921488755761C072E2C
:10F05000F7D35421684681800721C1801D481C498F
:10F0600000900831684601F071FA00280FD1184E5F
:10F070000120083E3070207800280CD0694688882E
:10F08000C988484381B23046103001F07BF905B0A1
:10F09000F0BD1148FBE7114F00240D48A1B202AAB0
:10F0A000083001F045F9002809D11C206043C0193F
:10F0B00000231C2202A901F0F5F9002801D03570C7
:10F0C000E5E7641C072CE8D3E1E70000AC2E002044
:10F0D000DC280020E1F001000E800000A82D0020B7
:10F0E000FFB5524891B000681A9F1E46002865D0AF
:10F0F000542F63D804A8FFF783FF002803D0002211
:10F100001146FEF70BF80024684604740470254687
:10F1100006970796A9B20EAA454801F009F90028FA
:10F1200006D108220EA91198FDF775F8002817D00E
:10F130006D1C072DEED36846857CFF2D3ED01298BE
:10F14000032810D03B481C21301AFDF70FF8012787
:10F15000072820D205A80190139800280DD013E0AD
:10F1600068468574E7E7542F05D04020694608704B
:10F17000C0B203214EE02020F8E738462C49A840D1
:10F1800010394968084219D0284601F00BFF2020A9
:10F190006946087038E025481C214038301AFCF7D1
:10F1A000E5FF00280CD0214D1821243D701BFCF7F1
:10F1B000DDFF00281AD040206946087015B0F0BD68
:10F1C00005A8019020206946087018484C740C303E
:10F1D0000C904C3808901C20454316480B94281876
:10F1E000099008A80790182006900DE03021684685
:10F1F00001704474C7740D480C38807A800703D4BA
:10F2000028461821FCF7F5FF12986946022808786D
:10F210000AD0022108436946087005A8019004A895
:10F22000139AFDF787FFC9E73843F5E7AC2E0020B6
:10F23000E4280020A82D002070B5064618480D4689
:10F24000007800280ED01749002E0ED0002D0CD0CB
:10F250002868002809D0144C2168002907D01148DB
:10F260000A3870BD0F48801F70BD084670BD206011
:10F270000522691D201DFCF7A3FF2879A072207AC2
:10F280000221400840000843FB2210402072E07930
:10F290000123184308431040E0710020307070BD16
:10F2A000D42800200E800000AC2E002010B50E499E
:10F2B00000234A788C78A24212D0521CD2B24A70F3
:10F2C000022A00D14B704A78074B920018339A58A3
:10F2D0000260086910180002000A0861012010BDD0
:10F2E0000360002010BD00002429002010B5002874
:10F2F00003D0112802D0FDF739FF10BD02480822C3
:10F3000041681143416010BDEC28002010B51C4C31
:10F31000217820464068012906D0022929D00329F6
:10F3200012D1000717D513E0000711D41548142295
:10F33000017851430818C188A28B891A0904090C65
:10F34000C18002D001F0B0FC10BDFFF7D7F910BDAD
:10F3500000F032FD10BD6069401C606100F034FBBC
:10F36000002803D0207801F0ABFB10BDFFF762F955
:10F3700010BD6078044980000858804710BD000027
:10F38000EC280020302F00201012020010B528DFDA
:10F39000FFF7ACFF10BD10B529DFFFF7A7FF10BDC9
:10F3A0000EB51120694608720A2213A102A87CDF5B
:10F3B000002803D000221146FDF7B0FE0320000212
:10F3C00078DF002803D000221146FDF7A7FE0021B8
:10F3D000FF20913000916A460191108043005380D4
:10F3E0009180D08068467ADF002803D00022114641
:10F3F000FDF794FE0EBD00004E6F726469635F48B6
:10F4000054530000002070470020704700207047D0
:10F41000F8B506464078182104464C4324490C228E
:10F4200050436118224A00254B6818328018AE46B6
:10F430002F469C46002B0CD0827A1346D20908D066
:10F440005A0606D40D461A4A614689B2175908353C
:10F450008E46174C008918343B4672462946A9DF70
:10F460000B2819D0002800D01248012F13D1707832
:10F470000C214843001900890F4AA7DF00280AD051
:10F480000E49884212D0082810D0891C88420DD01D
:10F4900011280BD00020F8BD70780C2148430123BF
:10F4A0000019008972462946A9DFE0E70148F8BD46
:10F4B000882E002041800000FFFF00000230000085
:10F4C00070B50C46014660781822084D504340192B
:10F4D000382300F0E7FF002807D161781822514354
:10F4E00049194A68521C00D14A6070BD882E00201C
:10F4F000F3B585B00D460E206946088268780C2168
:10F5000003274843224E3B468019008904AA6946D6
:10F51000AADF002838D1687818214843741A0019E6
:10F52000694608300A8AFCF776FE0028687807D01A
:10F53000182148430119496800290DD0154E0CE0E7
:10F540000C2141438919897A89071DD41821484320
:10F550000019FCF74EFE17E00F4E27506846028A4E
:10F5600068781821484300194260687848430019B8
:10F5700008306946FCF724FE6878182148430119D1
:10F58000382318220598B047002007B0F0BD0000CE
:10F59000A02E0020E50602000906020010B5FFF7C4
:10F5A00037FF10BD10B5FFF78BFF10BD10B5FFF78B
:10F5B0009FFF10BDF8B50746114E0125BD403068CC
:10F5C000FDF780FE002806D10E4C20690146294235
:10F5D00002D0A8432061F8BD384600F05FFD002846
:10F5E000E06801D0284300E0A843E06020690022E1
:10F5F00028432061A1683068FDF726FEF8BD0000B1
:10F60000241202001029002070B51B4C207900073D
:10F610002ED41A481422017851430D182E6900F097
:10F6200015FF0146E8882A89761E80188019FCF7A4
:10F630009DFD21690025002909D06169814206D11B
:10F64000E560606801210843606000200AE000F086
:10F65000BBF9002802D00220E56003E02069002801
:10F6600003D0032001F068FB70BDFEF7E3FF70BD1F
:10F6700001F056FB70BD0000EC280020302F002068
:10F68000F0B5002406460D46601C01079DB0090F29
:10F69000103108A80D940175817DF9273940891C26
:10F6A0008175297941751C2106A8FCF7A2FD6846E1
:10F6B000017E10200143684601760DA807940B9047
:10F6C00009940A9401220C9408A882761749684686
:10F6D00001870594817D3940891C81756B7903759B
:10F6E000AB794375E72001401143684681751421C9
:10F6F000FCF77FFD20210FA8FCF77BFD0EA80090F2
:10F7000005A8019017AA0FA9304600F011F801468C
:10F710006846018114214481818117A80490B08832
:10F72000B31D6A4606A9A2DF1DB0F0BD1C2A000069
:10F7300070B5087800230124002800D001234E78FA
:10F740000225002E00D02B43002804D02343087B41
:10F750000C69000602E008798C6800062402240A7D
:10F7600020435070060A9670060CD670000E107179
:10F770004E7804240520002E0FD02B438D8A55711E
:10F780002D0A95718D7DD571CD7D15720D7E5572C9
:10F790004D7E95728D7ED5720C208D78002D03D014
:10F7A000097F23431154401C137070BDF8B5284DD8
:10F7B0000446697800260120002946D02070491EA1
:10F7C00069706070A070224822491C3001F068F80E
:10F7D000A860E320FDF77AF81F4F3946FCF728FDB3
:10F7E000FCF7AEFE0121C943A8602171A06021731E
:10F7F000C10040180521FCF7B9FC1921C9014018C6
:10F800002061E520FDF762F83946FCF711FDFCF7B1
:10F8100097FE0F492061204608220C311430FCF776
:10F82000CFFC042020770A480C3081791B31C9B203
:10F8300081713B2908D93C3981714179491CC9B290
:10F8400041713B2900D94671F8BD26706870B8E750
:10F8500000280020EC2B00200000C842F0B58FB03B
:10F860000D4606461C216846FCF7C3FC694608782D
:10F87000022108436946087000240194039404940B
:10F880000594012708A906948F70154869460884D5
:10F890000794887FF9210840801C69468877EA79B7
:10F8A0000A772A7A4A77E7210840B8436946887779
:10F8B00014210AA8FCF79DFCA87A08A9087107A8DA
:10F8C0000A910B9069460F864C868F8609A80E9088
:10F8D0003346B0880E330AAAA2DF0FB0F0BD000095
:10F8E0001D2A0000F8B51E4C2078002837D020696A
:10F8F000002807D00026E068002805D00025002E4B
:10F9000004D013E00126F6E70125F8E7684651DF49
:10F91000052806D0002806D000221146FDF7FEFB80
:10F9200004E0012602E0216900988847002D12D1E9
:10F93000608869460880A06861DF052806D0002835
:10F9400006D000221146FDF7E9FB04E0012502E0A4
:10F95000E168A0688847002ED8D0002DCFD0F8BD30
:10F9600044290020418805480288914204D34088F8
:10F97000814201D80120704700207047782800207C
:10F980001048018CC9B2012917D1818C090714D103
:10F99000018D09060A0F03D1828D1206120F0ED0B7
:10F9A000090F012903D1828D1206120F07D00329F6
:10F9B00003D1808D0006000F01D000207047012088
:10F9C00070470000C00F00F070B50E481422017897
:10F9D00051430C18256900F039FD0146E088228961
:10F9E0006D1E80184019FCF7C1FB07494A69824225
:10F9F00006D3824202D10869002801D0002070BDE0
:10FA0000012070BD302F0020EC280020800701D09D
:10FA1000002070470120704730B51588EC1C9C42CF
:10FA200001D90C2030BD02244C5513881C255B1CC9
:10FA30009BB21380CD5413885B1C9BB213800128AA
:10FA400007D0022807D0032807D0042807D00720B2
:10FA500030BD002004E0012002E0CC5401E003208E
:10FA6000C8541088401C1080002030BD10B50448D8
:10FA7000017AC90702D00078FEF7B8FB10BD00007C
:10FA800030280020F8B52C49C8680A690C780F792D
:10FA900089688646944600913EE00099E200551838
:10FAA0002A7836E0182353436968521CC918AB788A
:10FAB000D2B2934200D100220B78022B02D0032B4A
:10FAC00027D123E04E680346014603E0B14204D04B
:10FAD0000B46C96900291CD0F8E7002919D08B42D0
:10FAE00008D1C069002805D1144F0126BE60002648
:10FAF000B44601270E68C969D961002909D00B688D
:10FB00009B190B6005E00174C06900E0002100282A
:10FB1000F9D169789142C5D12146641EE4B2002929
:10FB2000BBD1054962460A61C8600F71704501D0BA
:10FB30000120F8BD0020F8BD24290020001001405C
:10FB4000F8B5044631480026C168009107784EE0B8
:10FB50002E48F90080680D1843E0002C02D02046A2
:10FB6000E4691FE02878182141436A68401CC0B24C
:10FB700051182870AA78904200D12E700A784868EF
:10FB8000012A30D1027C002A2DD18A684260CA68DD
:10FB900082600A69C260496981611C49097900294A
:10FBA00000D04660194943680A699C46991A0902BF
:10FBB000174B090A994202D28268891807E0614608
:10FBC000511A09028268090A8A4202D9511A01604F
:10FBD00000E006604660012186600174C66101F0A4
:10FBE00053F9002CB9D1287869788842BAD13846BF
:10FBF0007F1EFFB20028ABD10448C1680098814243
:10FC000001D00120F8BD0020F8BD0000242900200B
:10FC1000FFFF7F0098B000F051FEFCF74BFE002381
:10FC20005A4A05211846FDF7C7FA002803D00022DA
:10FC30001146FDF773FA564A01215648FDF7A6FA18
:10FC40005448554A0121001DFDF7A0FA040008D0D0
:10FC500000221146FDF762FA002220461146FDF708
:10FC60005DFA4E4A4E490320FEF770FA002803D091
:10FC700000221146FDF752FA01A90020FEF736F9DD
:10FC8000002803D000221146FDF748FA68460079A3
:10FC9000022870D0002168460170FEF7CFF8684650
:10FCA0000078FEF787FFFFF77BFB382101A8FCF700
:10FCB000A0FA022168460171012484710621C171F4
:10FCC000032585823748069024210FA8FCF791FA76
:10FCD00010A804720024282014941390324B0FAA09
:10FCE0002146009401A8FDF705FC002803D000225E
:10FCF0001146FDF713FA00F03BFE00F083FD1C21D6
:10FD00006846FCF776FA0520C00301900F20000436
:10FD10000290009468460573244841896846C18171
:10FD2000047423480590234806906846FDF770FE4A
:10FD3000002803D000221146FDF7F0F9154C0121EF
:10FD4000002209042068FDF77FFA01210022C9037F
:10FD50006068FDF779FA040008D000221146FDF72B
:10FD6000DDF9002220461146FDF7D8F90320FDF702
:10FD7000D1FC03E0FFE701218DE748DF0028FCD03C
:10FD800000221146FDF7CAF9F7E700009829002084
:10FD900049D4010084110200D10D020099E0010054
:10FDA000CD0C000024280020EB010200C02B002015
:10FDB0001102020069E8010010B5044808224168F8
:10FDC00091434160007800F07BFE10BDEC280020DC
:10FDD00070B51446828805460E46921C2088911CF8
:10FDE0004118994201D8FE2A01D90C2070BD521C3D
:10FDF00032542088FF21401C80B22080315420885A
:10FE0000401C80B220808119288801F0C5F8218823
:10FE1000401880B22080AA88002A09D0A968002949
:10FE200008D08019FCF7CCF92088A98840182080D8
:10FE3000002070BD072070BDF8B50F46017814464C
:10FE40000546012902D16878002806D02088821C46
:10FE50009A422DD8012902D006E00720F8BD697822
:10FE60004118891C994223D8181A801E86B2684608
:10FE700006802188B81C081869467DDF0028EDD16E
:10FE80002878022805D169460988B14201D809219C
:10FE90000AE00821012805D16878B04202D86A46F4
:10FEA000108001E06846068068460088FE2801D977
:10FEB0000C20F8BD2288401CB8542088401C80B219
:10FEC0002080395420886946401C208009884018C9
:10FED00020800020F8BD00207047002070470020DF
:10FEE0007047000031B5054C04E0401E00902046EC
:10FEF000FCF700F900980028F7D138BDE7030000AF
:10FF00008207D30EFF229A408907090E10B5994047
:10FF100000280BDA03071B0F083B9C080C4BA400BE
:10FF2000E318DC6994430C43DC6107E08408094B67
:10FF3000A400E418236893430B432360C106C90E51
:10FF400001208840044908600449086010BD000091
:10FF500000ED00E000E400E080E200E000E100E00D
:10FF6000F3B581B00F46019800F096F901240028FE
:10FF70001E4E019817D0FEF78BFA80192030007FB3
:10FF80008009032802D001280BD005E01848006939
:10FF900001998C40204204D00321019800F0E8F838
:10FFA000FEBD0221F9E700F083F90028F8D001989E
:10FFB000FEF76EFA05468100C81D0E4AF930891811
:10FFC0000A6980B222430A610B494018002101608E
:10FFD000002FE5D00198FEF75BFA8000305800282A
:10FFE000DED00648AC404460FEBD0000D02E0020AC
:10FFF00000050050006500400060004000630040C4
:020000040002F8
:10000000FEB515460E460446002700F03BF90028D1
:1000100001D0082738E0F27829462046FEF714FA86
:100020000546401C2FD0B078002807D01748A10003
:100030000918086802229043086007E000217378DD
:10004000204600910A46019100F076F8F0780028E9
:1000500010D00F48AA001018317802690D4B1A40D1
:100060000261E206D20C8907890B0A4301690A433F
:10007000026109E00848327840192030017F92017E
:100080001143017700E004273846FEBD0007005009
:1000900000650040FFE0FCFFD02E00200349096905
:1000A000C140C807C00F00D00120704700050050B4
:1000B00070B5124D2879002801D0082070BD0F4975
:1000C00000204039421E0B182033401CC0B21A7069
:1000D0002028F8D300242046FEF7A8F9641CE4B2D7
:1000E000082CF8D303210620FFF70AFF012004495A
:1000F000C007486001202871002070BD102F00202B
:100100000063004002480079002800D001207047B9
:10011000102F002030B552000A439900039C0A4377
:100120002102049D0A4329040A4302498000401821
:10013000026030BD0007005030B552000A439900FC
:10014000039C0A432102049D0A4329040A430249ED
:1001500080004018026030BD000700501CB500212F
:1001600000910B46012201911146FFF7D3FF1CBD00
:10017000820006481018026803231B049A43026099
:10018000026809040A43026070470000000700503B
:10019000012181400148C160704700000005005006
:1001A0000121814001488160704700000005005036
:1001B000034940180068012800D000207047000063
:1001C000006000400921C9014118086808607047B3
:1001D0004058002800D001207047032212028018E6
:1001E0004068084000D00120704710B500280BD0AF
:1001F000032808D10220FDF79BFF002803D000222E
:100200001146FCF78BFF10BD00F040FC10BD000054
:1002100010B50078002809D105483B21808876DF99
:10022000002803D000221146FCF778FF10BD000023
:10023000002800200021425C002A01D001207047E4
:10024000491C0629F7D300207047000070B5054609
:100250001C200B4968434418204611300621FBF747
:10026000C8FF20461021FBF7C4FFFF2121740020A6
:10027000A176C0432083284600F094FE70BD0000A4
:10028000A82D00200349081820214156C817401CFA
:1002900070470000D02E0020044908182021415644
:1002A000042901DB0120704700207047D02E002078
:1002B0000449081820214156042901D20120704721
:1002C00000207047D02E002070B50D00044604D1E8
:1002D000002211461046FCF721FF002C04D1002219
:1002E00011461046FCF71AFF287820706988617063
:1002F000090AA170A988E170090A2171E888607172
:10030000000AA07170BD000007490979490701D4AE
:1003100008207047002804D0044949780160002073
:1003200070470E2070470000EC280020302F00207E
:1003300030B5124B1B795B0701D4082030BD002873
:1003400005D0002A03D00468002C10D101E00E2053
:1003500030BD0B4B1D68002D09D0456818894143FD
:1003600069185D89454358682818884201D80720D4
:1003700030BD14600020516030BD0000EC2800202A
:10038000FC2F0020FEB5054625480E4600794007A3
:1003900001D40820FEBD002D03D02868002834D1E8
:1003A00001E00E20FEBD1F4C216800292DD0608980
:1003B00021894843616841186868814225D9FFF75F
:1003C00025FB00280FD06868019029680C22514352
:1003D0000F1979680091401A39890C46FBF7C6FE5F
:1003E000002912D101E01020FEBD21463046FBF766
:1003F000BDFE002909D1002E07D078894443019819
:10040000811900980019814201D90720FEBD002002
:1004100002460090334629460320FEF749F9FEBD07
:10042000EC280020FC2F002010B507484469601C10
:1004300006D000F00BF801462046FBF797FE10BDF2
:1004400001200007406910BD0010001001200007C6
:10045000006980B27047000070B500240F4825463F
:10046000047044702846FEF713F96D1C0A2DF9D369
:100470000B4D6C80FFF7D8FF861EFFF7E7FF464362
:100480000648AE60CC306C610460048144812C70FD
:10049000AC610420EC616860002070BD302F00204A
:1004A000EC280020FFB5274881B000791F4616468A
:1004B0000D46400702D4082005B0F0BD002D06D03F
:1004C0000198002803D02868002815D101E00E20EB
:1004D000F2E71D4C206800280ED0618920896268EF
:1004E000414389186A68914206D9002E04D0B0426F
:1004F00002D3F119814201D90720DDE70198FFF706
:1005000085FA00281BD03846FFF780FA002816D05D
:100510006868FFF77BFA002811D068683246C11975
:100520000198FBF74DFE009628680C21484324589B
:10053000002202212846019BA0470020BCE7102092
:10054000BAE70000EC280020FC2F0020F8B52C4D65
:10055000044628790E46400701D40820F8BD002C37
:1005600020D0002E1ED0206800281BD0FFF76EFF81
:100570000146A088814213D3102811D3E0880028B7
:100580000ED0FFF751FF471EFFF760FF4743E28899
:10059000A188A8684A431218974201D3890703D05B
:1005A0000720F8BD0E20F8BD6988012926D03160EA
:1005B0000C22144B51437060CA1850602068585088
:1005C000A0881081E0885081FFF740FF0646FFF7C2
:1005D0003DFFA188E288401E514340183146FBF799
:1005E000DBFD0446FFF732FF0146A86861430818A7
:1005F000A8606888401C68800020F8BD0420F8BD11
:10060000EC280020FC2F0020F8B5044620481E46A8
:10061000007915460F46400701D40820F8BD002F89
:1006200005D0002C03D02068002815D101E00E2051
:10063000F8BD1848016800290ED042890189406838
:100640004A4310186268904206D9002D04D0A9428E
:1006500002D3A819884201D90720F8BD3846FFF710
:10066000D5F9002811D03046FFF7D0F900280CD07A
:100670006068FFF7CBF9002807D02B463A462146A1
:1006800001200096FEF714F8F8BD1020F8BD000018
:10069000EC280020FC2F002010B5114902460878F4
:1006A000002811D004280FD0022A16D0032A0BD11B
:1006B0000A79120711D48A69521C8A61032A08D068
:1006C000022802D000F0FCF910BD487800F034FB9D
:1006D00010BD0D20FCF74AFD10BDFEF717FE10BD42
:1006E000EC280020F8B5044620481E46007915463F
:1006F0000F46400701D40820F8BD002F05D0002C7C
:1007000003D02068002815D101E00E20F8BD18485C
:10071000016800290ED04289018940684A431018B7
:100720006268904206D9002D04D0A94202D3A819CC
:10073000884201D90720F8BD3846FFF767F900283D
:1007400011D03046FFF762F900280CD06068FFF73F
:100750005DF9002807D02B463A4621460420009632
:10076000FDF7A6FFF8BD1020F8BD0000EC28002022
:10077000FC2F002070B501240B49600408600B4970
:1007800040108860094940398860094D6C602F200D
:10079000FBF7C0FCAC60074D00242F202C61FBF759
:1007A000B9FCEC7070BD000080E100E04013014036
:1007B0000010014024290020FF21074809310022B0
:1007C0004250064881690648037DC268D154017DC4
:1007D000491C0175704700000020004000250040C2
:1007E000182F00201FB5012269460A7008720448BC
:1007F000C16801910021C17406C8684690471FBDB9
:10080000182F002010B50E4851210160642141606D
:1008100001218160017301460A4800F035F808485B
:10082000094910300160094941602421816000219B
:10083000017301460348083000F026F810BD00009F
:10084000DC2B002014280020680E0000840F00001C
:1008500010B503680A6889689C1A8C4202D9591A33
:10086000016010BD01210260017110BD10B54B681F
:10087000026889689C1A8C4202D95118016010BD27
:1008800000210360017110BD0A7B002A03D0496872
:100890000160002102E009680160012101717047D7
:1008A00010B5044600790028204602D0FFF7DEFF8D
:1008B00001E0FFF7CDFF206810BD000006480021D1
:1008C000816106484160012283059A604268002ADE
:1008D000FCD041600020704700050040000100404E
:1008E000FFB50746806A81B0144600283DD0002538
:1008F00038462030009033E00C20B96A68430E1867
:10090000B088801CFE2802D90C2005B0F0BD2288DA
:100910000299401C885420881622401C80B22080F6
:1009200002990A542088401C80B220800299411804
:10093000308800F031FB2188401880B22080B288D6
:10094000002A0AD0B16800290FD0029BC018FBF71B
:1009500037FC2088B188401820806D1C0098EDB2CB
:10096000007BA842C8D80020CFE70720CDE70000D1
:1009700010B59CB000241594169410A817944477D1
:1009800002218177601C0107090F103110A8017640
:1009900044768476601C0107090F103110A8C176D7
:1009A0000020014610A8017715A92C48FDF7A4F9ED
:1009B000002803D000221146FCF7B0FB142110A838
:1009C000FBF717FC01200146103110A841730120EC
:1009D0000146103110A881730020014610A8C17390
:1009E00001200146103110A80174012110940171F9
:1009F000642112940173014618481838FCF7B4FFBB
:100A0000002803D000221146FCF788FB40216846ED
:100A1000FBF7EFFB12A16846FDF700FA15A102A84B
:100A2000FDF7FCF91748189017481A9018A81121DB
:100A30000C90199101200146103108A8017700207F
:100A4000014608A841776846FDF784F8002803D0DE
:100A500000221146FCF762FB1CB010BDC02B002029
:100A60004E6F7264696353656D69636F6E6475631D
:100A7000746F72004E532D4854532D4558414D50BC
:100A80004C450000554433228877660010B500209D
:100A9000FDF74EFB002803D000221146FCF73EFB79
:100AA000FDF78AFA002803D000221146FCF736FB36
:100AB0003CDF002803D000221146FCF72FFB10BDBD
:100AC00010B50F490028087009D0012811D002285C
:100AD00012D0032802D14869FEF758FC10BD00204F
:100AE0008861C861074840780028F7D0FDF7B4FD59
:100AF00010BD00F0D9F810BD00F038F810BD0000AE
:100B0000EC280020302F002010B508461146C046C2
:100B1000C04610BD002803D00249C86000207047BD
:100B20000E2070474429002070B5002901D08C07A1
:100B300001D0072070BD064C0125A16062800549E7
:100B4000636010DF0028F5D1257016202EDF70BD00
:100B500044290020090B0200002803D00249086143
:100B6000002070470E20704744290020F8B5164C2D
:100B700014226068400840006060144801785143C6
:100B80000E183769FFF762FC01463846FBF7EEFAAC
:100B900005466061FFF75AFC0146F0887F1EC019C8
:100BA000FBF7E4FA02228542606801D1104300E0BD
:100BB00090436060E1681040084303D0002000F0DB
:100BC000BBF8F8BD0220FAE7EC280020302F002007
:100BD00010B502484069FEF7D9FB10BDEC28002093
:100BE00010B5FFF721FC441EFFF730FC4443FFF72C
:100BF0002DFC04494A69521E5043CA682146FEF73B
:100C0000CAFB10BDEC280020F8B51048142201786A
:100C100051430C182569FFF719FC0146E088228929
:100C200080184019FBF7A2FA0F46FFF7FDFB461E9E
:100C3000FFF70CFC4643E0882289F1198018044A2A
:100C400040191269FEF7A7FBF8BD0000302F002005
:100C5000EC28002070B5FFF7F9FB0546FFF7E4FB31
:100C6000441EFFF7F3FB60432946FBF77FFAFEF7CC
:100C70008DFB70BD70B5FFF7E9FB8608FFF7E6FB5B
:100C80000749496948430446FFF7CEFB451EFFF775
:100C9000DDFB684332462146FEF77DFB70BD000058
:100CA000EC2800200020704770B514481422017809
:100CB00051430C18241DFFF7C9FB6188104E884270
:100CC00011D2FFF7C3FB61880D1AFFF7BFFB820843
:100CD000A188E0684018216940194919FEF75BFBBB
:100CE000FFF7B4FB07E0A288E06880188A08216952
:100CF000FEF751FB6088F06170BD0000302F0020CE
:100D0000EC28002010B505480079000703D4012025
:100D100000F012F810BD00F003F810BDEC28002020
:100D200010B504480822416891434160407800F0C2
:100D300003F810BDEC2800200249487002498000E9
:100D400008580047EC280020FC11020010B50446AA
:100D5000FFF7A2FC2046FCF79DFC10BD70B50C000F
:100D6000054604D1002211461046FCF7D7F9002DA4
:100D700004D1002211461046FCF7D0F920782870E3
:100D80002088FF2109020840000A687020680902D3
:100D90000840000CA8702068000EE87020792871C7
:100DA000207A68712089000AA871A068000CE87197
:100DB00070BD000010B505480079000702D4FDF7AA
:100DC00039FC10BDFFF7ACFF10BD0000EC2800207F
:100DD00000B5064989B0002008706846FEF7E6FCB9
:100DE00069460348FCF7C6FF09B000BD0028002093
:100DF000C02B0020FEB51F4C00252769E06802903B
:100E00006846FEF753FA0190FEF73CFE064601984D
:100E1000002822D000230098E16817E00E680A46F7
:100E2000864202D9301A086012E0801BF3180026AF
:100E30001660D668D169B446002E07D0FE18360277
:100E4000360A566066469660D56115460029E5D19A
:100E50002846E160FEF774FE06E02846FEF770FEC5
:100E6000002801D1002E02D00298FDF765FC002079
:100E70002071FEBD242900200120024900050860E0
:100E80007047000000E200E010B50E4BD968002961
:100E900006D002680C68A24204D8A21A0A60C16196
:100EA000D86010BD0B4604E00B46C969121B00292F
:100EB00004D00C689442F7D3A41A0C600260C1619C
:100EC000D86110BD24290020F8B51E4DEC68002C17
:100ED00036D01D48002740682969401A0602360AA4
:100EE0002068B0421AD8361AC7192246107CE46925
:100EF000002811D0002010746B69002B09D0916973
:100F000050699847002807D000221146FCF706F9DF
:100F100002E0516990698847002CE1D16978A8788E
:100F2000814206D1401CC0B2A870022801D1002025
:100F3000A87004490006800D18310F50FFF79CFF80
:100F4000F8BD00002429002000150140FF210748BA
:100F50001D31002242500648028A8168895C028A5B
:100F6000521C02820348C16170470000002000400B
:100F7000182F0020002500401FB500216A4611707F
:100F80001072044882680192817406C868469047CE
:100F90001FBD0000182F00200870000A48700220B2
:100FA0007047000001218140024842688A43426044
:100FB00070470000D428002038B51549154A4888E4
:100FC00090420FD04A78144C521CD2B24A70237B04
:100FD000934208D3091D75DF002803D0A1690029B9
:100FE00000D0884738BD00254D70217C002907D0EE
:100FF0003B2176DF002803D0A169002900D0884773
:1010000061690029EED068460570884738BD000048
:1010100074280020FFFF00008C2D00201249486832
:10102000C005C00D19D0103840B2002807DA0207F9
:10103000120F083A920892005118C96904E0810819
:101040000A4A8900891809688007C00EC14008064D
:10105000800F012803D0032803D00220704700200E
:10106000704701207047000000ED00E000E400E060
:1010700042788378521CD2B2934200D10022037886
:10108000934201D1002070470A70416840781822CD
:10109000504308187047FFB583B016460C9D0D9C51
:1010A0001F46022200950194039800F00CF80028D6
:1010B00007D13B461022314600950194039800F079
:1010C00002F807B0F0BDFFB583B0074600200C9CC6
:1010D0008646268805463AE07868A90042181188B5
:1010E000684681805188C1800022694601A865DF79
:1010F000002839D1684601780598814226D170468A
:10110000002801D0002200E002222088891842181D
:101110000D998A4227D8714600290AD1401C80B215
:101120002080069A049911542088401C20800120B8
:101130008646218806980A18694601A865DF0028B6
:1011400012D1694620880978401820806D1C3888A3
:10115000A842C1DC704600280AD02088801B401EAF
:1011600080B2FF2802D90C2007B0F0BD069988553F
:101170000020F9E70179002902D1007B002800D086
:10118000012070475829002078290020FC2B0020DE
:101190001C2C0020482C0020110000001200000030
:1011A000130000001400000011000300CDDF010057
:1011B00012000300CDDF010013000300CDDF0100AA
:1011C00014000300CDDF01006C2D0020DFFE0100C4
:1011D000F1F401000DF40100ADF50100DBFE0100AA
:1011E000C1F4010009F40100A5F50100D7FE0100DA
:1011F00011F4010005F401009DF50100550C0200F9
:10120000750C0200D10B0200090C0200E10B020078
:10121000050D020085E9010031E90100B50D02006C
:1012200009F6010008300020030000004C12020003
:10123000002800205801000072C701006C12020053
:1012400058290020D00E00000CCE01005173FFFF82
:101250000713DC070C050B320C23091801000F18CB
:0C12600001000A1801A324F403FBFFFFA7
:040000050001C0C175
:00000001FF
